:02333600C103D1
:10388600E4F0A304F0A3F0E4A3F0A3F022A3F0A3D2
:093896007401F0FB7A007947226D
:102E490090004874FCF0E4900047F07B017F011288
:102E59002EB17403F09000477401F0FBFF122EB1FC
:102E69007440F09000477401F0FB7A0079477F03C2
:102E7900121A8B9000487438122E9C7487122E9C5B
:102E890074FFF0E4900047F07B017A0079477F05F1
:032E9900021A8B8F
:102E9C00F09000477403F07B017A007947FF121A17
:102EAC008B900048227A007947121A8B90004822A6
:1037C800900047740AF0E490004DF0A304F09000D4
:1037D800481238867B017A00794712251A7F010240
:0237E800397531
:10316500E4900047F0A37403F0A3740112388CA314
:1031750074C5F07468123893E4FF12160690004780
:10318500123886A37415F074A0123893FF12160630
:10319500E4900049F0A3F0A3F0A374F1F0A3745AEE
:0F31A500F0E4A3F07B017A0079477F020216065F
:10372B00900084E090009DF0900085E075F00AA475
:10373B00FF900062E5F0F0A3EFF0900086E0FF90C1
:08374B0000A5E4F0A3EFF02259
:10329E00122E4990FE137438F01237C8123165128F
:1032AE0038E512266AE4FF12386A7F011237019060
:1032BE000081E0FEA3E0FF7B017A00798390004D50
:1032CE007404F012285412372B1233C9D2AF1234B1
:0C32DE00111237EA12341112137180FB38
:0B398D001239C2D2931239C2C2932239
:0439C2007F01DFFEA4
:0139C60022DE
:0F394900D293D2941239C2C2941239C2C29322BD
:02384D00AE07C4
:10384F00E4FDC293EE30E704D2948002C2941239A1
:0A385F008DEE25E0FE0DEDB408E843
:01386900223C
:08000300D29412398D0239C2BA
:02364400AE07CF
:10364600E4FD900042F0C2931239C2D29390004238
:10365600E0FF25E0F0309403E004F01239C20DEDEE
:10366600B408E3EE70051239B480031239AC900049
:0336760042E0FF30
:01367900222E
:0839AC00C293C29412398D226E
:0839B400C293D29312398D2257
:0A399800C294D2931239C2D29422D5
:10389F00E0C4F854F0C868FEA3E0C4540F48FF908A
:0838AF00003CEEF0A3EFF02253
:10002E00900047EFF0A3EDF020031ED203123949E2
:10003E007F3212384D120003900047120058900084
:10004E0048120058123998C20322E0FF12384D129E
:03005E000003227A
:1031B40090003EEFF0A3EBF0A3EAF0A3E9F02003C4
:1031C40036D2031239497F321231FC90003EE0FFBF
:1031D4001231FC1239497F3312384D120003E4FFD7
:1031E40012364490003FE0FBA3E0FAA3E0F9EF12AB
:0F31F40010B4123998C2032212384D1200032270
:1038E5007D777F2012002E7D887F2112002E7D8816
:0538F5007F2302002EFC
:052EBC00900039EDF06B
:102EC100E490003BF07B017A00793A1231B4900032
:102ED10039E0FF7B017A00793B1231B47E0090002A
:102EE1003CEEF0A3F090003BE0FFA3EEF0A3EFF087
:102EF100E07F00FE90003CF0A3EFF01238AE9000AE
:102F01003AE0FDED1238ADEE90003C30E7081238A2
:102F11009FEE44F0800612389FEE540F90003CF073
:0B2F2100A3EFF090003CE0FEA3E0FFF7
:012F2C002282
:102D5800E4900032F0A3F0A3F0A3F0A3F0A3F0A353
:102D68007410F07D297F28122EBC900032EEF0A35B
:102D7800EFF07D2B7F2A122EBC900034EEF0A3EFEB
:102D8800F07D2D7F2C122EBC900036EEF0A3EFF0D4
:102D9800900032122DC890007BEEF0A3EFF0900067
:102DA80034122DC890007DEEF0A3EFF0900036E0CD
:0F2DB800FEA3E0FF12398190007FEEF0A3EFF051
:0A2DC70022E0FEA3E0FF1239812292
:0D000E00A3F0A3F0A374F1F0A3745AF02244
:0335D600200218B8
:1035D90090004C7401F0E412000EA37401F0FB7A20
:0835E90000794A7F0202160678
:0335F1003002188D
:1035F400E490004CF012000EE4A3F07B017A007911
:083604004A7F02121606C2B74C
:01360C00229B
:1033C900900083E0900047F064056033E0FF6409F2
:1033D900602DEF640C6028EF640F6023EFB41402D2
:1033E900801D9000837405F0900081E0FEA3E0FF4A
:1033F9007B017A00798390004D7404F0122854906F
:073409000047E0FF12360D41
:013410002299
:1038FA00C2AF12355C900047E06F600812355CEF8A
:04390A006002D2AFD6
:01390E002296
:10360D00EFB40507D2B3C2B5C2B422EFB40907C2F5
:10361D00B5C2B4C2B322EFB40C07C2B4C2B3D2B5B3
:10362D0022EFB40F07C2B3D2B5D2B422EFB4140651
:07363D00C2B3D2B4C2B522F2
:10355C0020B30930B40620B5037F142220B3093000
:10356C00B40630B5037F0F2220B30920B40630B562
:10357C00037F0C2220B30920B40620B5037F092257
:0E358C0030B30920B40620B5037F0522E4FF0A
:01359A00220E
:101870004572726F7200706F7765720025003A00D2
:101880006D560056002B004D696E000000000000F0
:101890000000000000000000000000000000000048
:1018A0000000000000000000000000000000000038
:1018B0000000000000000000000000000000000028
:1018C0000000000000000000000000000000000018
:1018D0000000000000000000000000000000000008
:1018E00000000000000000000000000000000000F8
:1018F00000000000000000000000000000000000E8
:101900000000000000000000000000007878ECCC2F
:10191000CCCC8C1C0000E0E0C060606060E0800027
:1019200000606060E0E0E0C0000000E0E0C06060F7
:101930006000FEFE0080C0E06000000000000000CB
:1019400000000C0C0C0CFCFC0C0C0C0C00303818BF
:1019500018FCFC0000000000180C0C0C8CFC78003B
:1019600000000000043C3CFCF0800000E0FC3C0473
:101970000400303818FCFC000000000000000000EB
:1019800000180C0C8CFCFC78000000001C181818C7
:1019900018190F070000FFFF081818181C0F070080
:1019A0000E1F19190D1F1F1F0000001F1F00000030
:1019B00000001F1F02070F1C181000000303030381
:1019C0000300000000001F1F0000000000000000D6
:1019D000001F1F000000001C1E1F1B1B19181800F1
:1019E00000000000000000010F1F1C1E0701000086
:1019F00000000000001F1F00000000001C1C1C0055
:101A00001C1E1F1B19181818000000000000000001
:101A100000000000000001010000000000000000C4
:101A200000000000000000000000000000000000B6
:101A300000000000000000000000000000000000A6
:101A40000000000000000000000000000000000096
:101A50000000000000000000000000000000000086
:101A60000000000000000000000000000000000076
:101A70000000000000000000000000000000000066
:0B1A800000000000000000000000005B
:103338004100970045008E05090C0F1441009300C9
:0433480041009400AC
:10271100900062E0FEA3E0FFE4FCFD90004912138B
:102721003490004D227A18797C7BFF90004C74081C
:10273100F022F0900081E0FEA3E0FF7B017A0079B6
:102741008390004C7404F0229000A3E0FEA3E0FF0C
:102751007C007D3C1210D8D39000A6E09F9000A58C
:10276100E09E227402F0A37410F07D0222D2019047
:10277100004A740CF022900093E0248EF582E43438
:1027810000F583E0227403F0A37416F0E4FD7F0FDB
:10279100227BFF90004C7410F02290009DE0FFE43A
:1027A100FCFDFE22900097E004F0229000A5E09449
:0227B100002204
:1037EA0090004A7420F0A374FFF0A37418F0A37435
:1037FA008BF07B80E4FDFF122BCD7FD07E07023851
:01380A00B706
:1023870090008DE004F0123007EF6401701CC390D9
:102397000063E094C2900062E09401500DA3E02432
:1023A7000AF0900062E034008022123062EF64018C
:1023B700703AD3900063E09496900062E0940040F6
:1023C7002BA3E024F6F0900062E034FFF0E0FEA3D8
:1023D700E0FF7C007D0A1210D8900085EF122733AA
:1023E700122C5712271112278612245390008DE0C2
:1023F70064FA7057900074E0FEA3E0FFC390006397
:10240700E09FFF900062E09EFE1239817C007D64B0
:102417001210C6900062E0FCA3E0FD1210D812274C
:10242700197403F0A37408F07D027F64122453909B
:1024370000A012279E12271C7403F0A37408F0E46F
:0B244700FD7F64122453E490008DF030
:012452002267
:102AB500900094E004F0123007EF6401700E90006E
:102AC50093E0C39405501FE004F0801A123062EFC2
:102AD5006401703F900093E0FFD394004008EF94A9
:102AE500055003E014F0122777FF12360D122777F1
:102AF500900083122733122C57122777FFE4FCFD31
:102B0500FE12271C1227647F461224537FC87E00BD
:102B15001238B7900093E0D394044002E4F090009B
:102B250094E0B41416E4F09000791227147405F0BB
:0B2B3500A37410F0E4FD7F461224534F
:012B40002272
:10338000123007EF6401700D90009DE0C39450501F
:1033900004E0048013123062EF6401702B90009DF2
:1033A000E0D394004022E014F0E090008412273330
:1033B000122C5712279B12271C1227647F381224C5
:0933C000537FC87E001238B722C9
:1025C300123007EF6401701DC39000A6E0941E1241
:1025D30027AC5011A3E004F070069000A5E004F0CE
:1025E3009000A58020123062EF64017031D3900017
:1025F300A6E094051227AC4025A3E024FFF0900049
:10260300A5E034FFF0A3E0900086122733122C5785
:102613009000A51227141227647F28122453C39015
:1026230000A6E094011227AC5013E4F0A304F09049
:1026330000A51227141227647F281224539000A3A5
:10264300E0FEA3E0FF900095E06E7003A3E06F60EF
:1026530015900095EEF0A3EFF012271974031227DB
:0626630066E4FF1224539F
:01266900224E
:10137100123411122770E4FB7D017F3212298C7A1D
:1013810018797012272A7D027F46122F9C7BFF7AE3
:1013910018797612272CE4FD7F46122F9C122726FE
:1013A1007D027F78122F9C122726E4FD7F78122F71
:1013B1009C122711122786122453900097E0701671
:1013C100122387123112BF01031227A51227495098
:1013D100E912377B80E4123411900097E0640160D8
:0413E1000302147F70
:1013E500C20120017812276E7B0D1215CF7B0E12DC
:1013F50015837B111215917B12E4FD1215E8E4FDAE
:101405007F37122F9C1227707B0F7D02E4FF122974
:101415008C1227707B107F0E1215DC7B117F1C123E
:1014250015DC7B127D021215E87D027F37122F9C99
:1014350090008312279E12271C1227647F461224D0
:10144500537A187980122792E4FD7F6E122F9C7AC9
:101455001879831227927D027F6E122F9C122AB56E
:10146500123112BF01031227A51238FA122749407B
:07147500030213DA12377BBA
:0E147C000213DA123411900097E06402706FD0
:10148A00C20120015912276E7B137F1412159F7B0C
:10149A00147F2212159F7B157F301215AB7B167FA6
:1014AA003E1215AB7B177F4C1215B77B18E4FD7FF4
:1014BA005A12298C7BFF7A1879851227947D027F2C
:1014CA0028122F9C122770E4FB7D027F5012298C70
:1014DA0012279B12271C1227647F381224531233B7
:0C14EA0080123112EF6401708F1227A5F0
:1014F600021482123411900097E06403707312276D
:10150600707B0A1215CF7B0B1215837B0112159186
:101516007B027F2A1215B77B037F381215C37B0423
:101526007F461215C37B057F541215FA7B067F6230
:101536001215FA7B07E4FD7F7012298C7BFF7A185F
:1015460079871227947D027F46122F9C9000A51260
:1015560027141227647F281224531225C31231122E
:10156600BF01031227A5122749508B12377B02149D
:10157600FC900097E0D394034002E4F022E4FD7F60
:101586000E12298C90004A740CF022E4FD7F1C1286
:10159600298C90004A740CF022E4FD12298C9000EC
:1015A6004A740CF022E4FD12298C90004A740CF067
:1015B60022E4FD12298C90004A740CF022E4FD12FC
:1015C600298C90004A740CF022E4FDFF12298C90BD
:1015D600004A740CF0227D0212298C90004A740C89
:1015E600F0227F2A12298C7BFF7A18797E90004C94
:1015F6007410F022E4FD12298C90004A740CF0223B
:1032EA00123411122770E4FB7D017F3212298C7B84
:1032FA00FF7A18797012272C7D027F46122F9C7B49
:10330A00FF7A18797612272CE4FD7F46122F9C1239
:10331A0027267D027F78122F9C122726E4FD7F78CC
:0C332A00122F9C12271112278602245338
:10390F00E0FEA3E0FFD3940AEE940022D3EF94F4E9
:04391F00EE940122FF
:10311200E4900047F0A3F0209624C2021235D62094
:1031220096177F017E001238B7900048E004F070D5
:10313200EE900047E004F080E6D2021235D690000D
:103142004712390F400812391C50037F0122D390D5
:103152000048E094F4900047E0940140037F02228B
:023162007F00EC
:013164002248
:10300700E4900047F0A3F0209724C2021235D6209F
:1030170097177F017E001238B7900048E004F070E0
:10302700EE900047E004F080E6D2021235D6900019
:103037004712390F400D12391C50089000AD74012A
:10304700F0801212391B40089000AD7402F0800521
:0A305700E49000ADF09000ADE0FF42
:01306100224C
:10306200E4900047F0A3F0209524C2021235D62046
:1030720095177F017E001238B7900048E004F07087
:10308200EE900047E004F080E6D2021235D69000BE
:103092004712390F400B12391C5006A37401F080FD
:1030A2001212391B40089000497402F08005E49026
:0830B2000049F0900049E0FF25
:0130BA0022F3
:100066000000000000000000002F00000000070054
:10007600070000147F147F1400242A7F2A120062CE
:10008600640813230036495522500000050300007A
:1000960000001C224100000041221C000014083E02
:1000A60008140008083E0808000000A060000008C8
:1000B600080808080000606000000020100804021C
:1000C600003E5149453E0000427F400000426151DA
:1000D6004946002141454B31001814127F10002774
:1000E60045454539003C4A49493000017109050337
:1000F60000364949493600064949291E0000363668
:1001060000000000563600000008142241000014CA
:1001160014141414000041221408000201510906A7
:1001260000324959513E007C1211127C007F494928
:100136004936003E41414122007F4141221C007F59
:1001460049494941007F09090901003E4149497A67
:10015600007F0808087F0000417F410000204041E1
:100166003F01007F08142241007F40404040007F4D
:10017600020C027F007F0408107F003E4141413E91
:10018600007F09090906003E4151215E007F0919D9
:1001960029460046494949310001017F0101003FD6
:1001A6004040403F001F2040201F003F4038403F56
:1001B60000631408146300070870080700615149BA
:1001C600454300007F41410000552A552A5500004D
:1001D60041417F00000402010204004040404040CB
:1001E600000001020400002054545478007F484463
:1001F600443800384444442000384444487F00389A
:100206005454541800087E0901020018A4A4A47CC2
:10021600007F080404780000447D4000004080848C
:100226007D00007F102844000000417F4000007CD4
:1002360004180478007C08040478003844444438E0
:1002460000FC242424180018242418FC007C08042C
:10025600040800485454542000043F444020003C05
:100266004040207C001C2040201C003C4030403C8C
:10027600004428102844001CA0A0A07C004464541C
:100286004C44141414141414000000000000000060
:100296000000000000000000000000F80000000060
:1002A600000000333000000000100C06100C0600A1
:1002B600000000000000000040C07840C078400008
:1002C600043F04043F040400007088FC083000006A
:1002D600001820FF211E0000F008F000E0180000C2
:1002E60000211C031E211E0000F00888700000007B
:1002F6001E2123241927211010160E0000000000CD
:100306000000000000000000000000E018040200E9
:10031600000000071820400000020418E00000005A
:100326000040201807000000404080F08040400058
:100336000202010F01020200000000F000000000AE
:100346000101011F01010100000000000000000082
:1003560080B07000000000000000000000000000F7
:100366000001010101010101000000000000000080
:10037600003030000000000000000000806018041B
:10038600006018060100000000E010080810E000F8
:10039600000F102020100F00001010F800000000C1
:1003A6000020203F20200000007008080888700008
:1003B6000030282422213000003008888848300088
:1003C6000018202020110E000000C02010F80000A8
:1003D60000070424243F240000F808888808080041
:1003E6000019212020110E0000E010888818000056
:1003F600000F112020110E0000380808C838080028
:100406000000003F000000000070880808887000A7
:10041600001C222121221C0000E010080810E00028
:100426000000312222110F00000000C0C0000000B1
:1004360000000030300000000000008000000000D6
:1004460000008060000000000000804020100800CE
:100456000001020408102000404040404040400097
:100466000404040404040400000810204080000072
:100476000020100804020100007048080808F00077
:100486000000003036010000C030C828E810E00047
:100496000718272423140B000000C038E0000000D2
:1004A600203C23020227382008F88888887000003C
:1004B600203F202020110E00C03008080808380010
:1004C600071820202010080008F808080810E00087
:1004D600203F202020100F0008F88888E808100028
:1004E600203F20202320180008F88888E8081000FC
:1004F600203F200003000000C03008080838000034
:1005060007182020221E020008F808000008F80834
:10051600203F210101213F20000808F808080000BB
:100526000020203F2020000000000808F8080800EE
:10053600C08080807F00000008F888C02818080066
:10054600203F20012638200008F80800000000009F
:10055600203F20202020300008F8F800F8F8080096
:10056600203F003F003F200008F830C00008F80890
:10057600203F200007183F00E01008080810E000A0
:100586000F10202020100F0008F808080808F000B7
:10059600203F210101010000E01008080810E000DA
:1005A6000F18242438504F0008F88888888870006F
:1005B600203F2000030C302000708808080838000F
:1005C6000038202121221C00180808F80808180005
:1005D6000000203F2000000008F808000008F80886
:1005E600001F202020201F000878880000C8380837
:1005F600000007380E010000F80800F80008F800AF
:10060600033C0700073C0300081868808068180848
:1006160020302C03032C30200838C800C8380800C6
:100626000000203F2000000010080808C838080015
:100636002038262120201800000000FE02020200B9
:100646000000007F40404000000C30C00000000069
:10065600000000010638C00000020202FE00000091
:10066600004040407F000000000004020202040037
:100676000000000000000000000000000000000074
:10068600808080808080808000020204000000005C
:100696000000000000000000000080808080000054
:1006A6000019242222223F2008F800808000000042
:1006B600003F112020110E00000000808080000005
:1006C600000E112020201100000000808088F80014
:1006D600000E112020103F20000080808080000046
:1006E600001F222222221300008080F088888818AA
:1006F6000020203F202000000000808080808000B5
:10070600006B94949493600008F800808080000049
:10071600203F210000203F20008098980000000024
:100726000020203F20200000000000809898000054
:1007360000C08080807F000008F800008080800074
:10074600203F24022D302000000808F80000000099
:100756000020203F20200000808080808080800054
:10076600203F20003F20003F8080008080800000E6
:10077600203F210000203F20000080808080000074
:10078600001F202020201F008080008080000000A5
:1007960080FFA12020110E000000008080808000D4
:1007A600000E112020A0FF808080800080808000C5
:1007B60020203F21200001000000808080808000F2
:1007C6000033242424241900008080E08080000067
:1007D6000000001F202000008080000000808000B4
:1007E600001F202020103F20808080000080808015
:1007F60000010E30080601008080008000808080A5
:100806000F300C030C300F000080800080808000C9
:100816000020312E0E3120008080800000808080F4
:1008260080818E70180601000080808080808000A4
:100836000021302C2221300000000000807C0202C2
:1008460000000000003F404000000000FF000000E4
:1008560000000000FF0000000002027C8000000093
:100866000040403F000000000006010102020404AF
:1008760000000000000000000000C0201010102042
:10088600C00000007F800000000000807F000000A4
:100896000102040404020100000000002020F00010
:1008A600000000000000000000FF00000000000043
:1008B6000000040407040400000000C0201010100B
:1008C600101020C000000100804020100804030022
:1008D600000605040404040404070000E0101010D8
:1008E600101020C00000008000000808081413E063
:1008F60000000304040404040402010000000000D4
:10090600008060F00000000060504C424140FF4013
:10091600400000000000000404070404000000F08A
:10092600101010101010100000800F0402020202B6
:1009360004F8000003040404040404030000000097
:10094600C0201010101060000000FF080402020210
:100956000204F8000000010204040404020100007D
:100966006010101010109070100000000000E018C9
:100976000601000000000000000700000000000063
:1009860000C020101010101020C00000E1120C084A
:1009960008080C12E1000001020404040404020128
:1009A6000000C02010101010204080000007081022
:1009B60010101008847F00000003040404040201E0
:1009C6000000020502F804020202040E8000000084
:1009D6000000010202020201000020222222E23E61
:1009E600E22222222000080402010000070808086B
:1009F6000E008888FF487057758575577000000887
:100A06000F000905030F030509002010FC03080762
:100A1600FC242424040000000F0000000F01010143
:100A2600010000FC24242625242424FC0000000FB9
:100A3600090909090909090F000010D232921000AC
:100A460008FF0808F8000302020203080601080866
:100A560007002010FC03088868FF6888080000006B
:100A66000F000201000F00010200FF4949FF00FFCD
:100A76004949F9494F0007020207000F0400030421
:100A86000E00FE2222FE0008488808FF0800070222
:100A9600020700000009080F000000F902F84949A2
:100AA6004949F901FF00000F0003020202020B0888
:100AB6000F001011F20050CF41414FD0100000003E
:100AC600070208080502050808001017D555577DC6
:100AD6005755D517100008080F08080E08080F0804
:100AE600080000F8888888FF888888F800000001D8
:100AF6000000000F00000001000000129490909F7B
:100B0600909094F200000004040404040404040F0A
:100B1600000004F4555654F404E605F40400000FEE
:100B26000101090F0003080F0000342CF7A4E8A404
:100B3600EA09CA04E80001010F000F020F000308CA
:100B46000F0000000181720C708000000000080494
:100B560002010000000102040800FC242424FF24F2
:100B66002424FC0000000301010107090909090802
:100B76000E0000FE02424242FA42424202000807CA
:100B8600080808080F08090A0800224400C05FD5B3
:100B960055D55FC000000402090F080F080F080FA3
:100BA600080000FE0A8ABEAAABAABE8A0A00080787
:100BB6000008090A04040A09080010FC0380FE2A3A
:100BC600EA2BEA2AEE00000F01000F0107010709D0
:100BD6000F0012D2FE910844AB526A46C0000100D3
:100BE6000F0008090405020100008868FF28442454
:100BF600D506D424440000000F00080805020508A5
:100C0600080004082010FC2724FD26240400040202
:0A0C160001000F09090F0909080089
:10320300900059E0FEA3E0FF22F583E5822FF582CB
:10321300E5833EF583E493FF7D0122E0FCA3E0A375
:10322300FDE0FEA3E0FF22EFF0A3EDF0A3EBF0221D
:10323300E0FF131313541F22A4FF900047E02FFF56
:0E324300A3E0FD22E0FD7C001210D8ED4C222D
:10386A00900047EFF07006FD7FA612359B90004747
:0C387A00E0B40107E4FD7FA712359B229B
:10370100900047EFF0700DFD7FC812359BE4FD7FFF
:10371100A112359B900047E0B4010EE4FD7FC01279
:0A372100359BE4FD7FA012359B22CA
:10359B0090005EEFF0A3EDF020032FD20312394918
:1035AB007F7812384D12000390005FE060047F407B
:1035BB008002E4FF12384D12000390005EE0FF1210
:0B35CB00384D120003123998C2032291
:1037530090005DEFF0ED24B012377054F0C4540FB5
:103763004410123770540FFFE4FD02359BFFE4FD54
:0837730012359B90005DE0227D
:10341100E4900047F0900047E0FFC394045036EF7A
:1034210024B0FFE4FD12359BE4FDFF12359BE4FD62
:103431007F1012359BE4900048F07D01E4FF1235C6
:103441009B900048E004F0E0C3948040ED90004779
:05345100E004F080C062
:013456002253
:0820AB00900053EFF0A3EDF0EB
:1020B300E4900057F0900056E0FFC313FD900058E2
:1020C300F0E4A3F0A3F0EFB40809A3E4F0A37406CB
:1020D300F0802D900056123233F582758300EF5451
:1020E300077E0060047F0180027F00EF2582FFEE00
:1020F3003583FE7C001210C690005BEEF0A3EFF078
:10210300EB24E0900057F0900053E0FFA3E0FD12B2
:102113003753E4900059F0A3F090005BE0FCA3E098
:10212300FD123203C39DEE9C40030221B69000587A
:102133001232477015900056E06408600D9000530A
:10214300E0FFA3E0FD04F0123753900056E0B4081B
:1021530015123203900057E075F006A42466F58249
:10216300E5F034008036900056E0B41015123203C7
:10217300900057E075F010A4248EF582E5F0340248
:10218300801A900056E0B4162A123203900057E0EA
:1021930075F021A4246EF582E5F0340612320C1298
:1021A300359B90005AE004F07006900059E004F06B
:0321B30002211CEA
:0121B6002206
:08349900900053EFF0A3EDF0E9
:1034A100A312134000000001900054E0FF14F0EF5C
:1034B1006020A3E0F8A3E0F9A3E0FAA3E0FB900009
:1034C10053E0FFE4FCFDFE1211C7900055121334C6
:0834D10080D690005512321E56
:0134D90022D0
:08245300900047EFF0A3EDF04B
:10245B00E4900051F0A3F090004EE0B40806900019
:10246B00517402F0E490004FF090004DE0FF9000AB
:10247B004FE0FEC39F4003022519C3EF9E14FD7F5F
:10248B000A123499A804A905AA06AB0790004912B1
:10249B00321E121252E47B0AFAF9F8121252900011
:1024AB0050EBF0900052E0703490004DE014FF9030
:1024BB00004FE0FEC39F5025A3E0701B90004EE041
:1024CB00FCC313FF900051E02F8EF012323B9000B3
:1024DB0056ECF07B20802B9000527401F090004E54
:1024EB00E0FEC313FF900051E02FFF90004FE0FD83
:1024FB00EF8DF012323B900050E02430FB900056F1
:0E250B00EEF01220AB90004FE004F0022474BA
:01251900229F
:0C2F9C0090004712322AA3EAF0A3E9F0EB
:102FA800E490004DF0900049E0FBA3E0FAA3E0F9BB
:102FB80090004DE0F5827583001210876040900004
:102FC80047E0FFA3E0FD90004DE0FE04F08E82751F
:102FD8008300121087FB90004CE0900056F01220FE
:102FE800AB90004CE0FFB40809900047E02406F0DD
:0E2FF80080B3EFC313FF900047E02FF080A7D7
:0130060022A7
:06298C0090004712322A00
:10299200A3123233FD7C00EF54077E0060047F01F6
:1029A20080027F00EF2DFFEE3CFE90004AE0FD7CAE
:1029B200001210C690004DEEF0A3EFF0E490004B31
:1029C200F0A3F090004DE0FCA3E090004B12322304
:1029D200C39DEE9C504890004A123247700D900001
:1029E20047E0FFA3E0FD04F012375390004AE0B441
:1029F2000C2CA3E0FEA3E0FF900049E075F018A4C0
:102A020024C8F582E5F0340912320C12359B90008D
:0E2A12004CE004F070AD90004BE004F080A5A5
:012A20002293
:062BCD0090004712322ABD
:102BD300E490004EF0A3F090004A123233FEEF541B
:102BE3000760047F0180027F00EE2F90004AF0E42B
:102BF300900050F090004AE0FF900050E0FEC39F29
:102C03005051900047E0FFA3E0FDEE2DFD12375336
:102C1300E4900051F0900049E0FF900051E0C39F21
:102C2300502990004BE0FBA3E0FAA3E0F9A3E4757D
:102C3300F00112117985F082F583121087FF7D016F
:102C430012359B900051E004F080CA900050E004DC
:032C5300F080A16D
:012C5600225B
:10266A007FAE1226EAFF12359B7F101226EAFF126E
:10267A00359B7FB01227017F8112359B7FFF12277E
:10268A00097FA112359BE4FD7FA612359B7FA81214
:10269A0026F27FC812359B7FD3122701FF12359B82
:1026AA007FD51227097F8012359B7FD91226F27FA8
:1026BA00DA12359BE4FDFF12359BE4FD7FDB123510
:1026CA009BE4FD7F4012359BE4FD7F8D12359BE430
:1026DA00FD7F1412359B123411E4FD7FAF02359B46
:1026EA00E4FD12359BE4FD22E4FD12359BE4FD7FF7
:1026FA001F12359BE4FD22E4FD12359BE4FD22E422
:07270A00FD12359BE4FD22E6
:0C001E006F7665722074656D7020210003
:10367A00900004E0F8A3E0F9A3E0FAA3E0FB221229
:10368A000C27A804A905AA06AB07E4FFFE7D807CE7
:0F369A003F020E2175F032900032E084E5F022FD
:1030BB0090000812367D120E21121FB6C004C005F7
:1030CB00C006C00790000412367D123694D003D090
:1030DB0002D001D000120D18C004C005C006C007F5
:1030EB007F337E937D887C4390000C12367D1236A5
:1030FB0089D003D002D001D0001236897B337A936A
:07310B00798878C3020C274C
:1036A90012367A120C23C004C005C006C007900068
:1036B90008E0FCA3E0FDA3E0FEA3E0FF12367A12C6
:0D36C9000D18D003D002D001D000020E2158
:0537A200900033EFF080
:1037A700E4A3F0900033E0FFA3E0C39F5012D2B729
:1037B7001239A2C2B71239A2900034E004F080E3B4
:0137C70022DF
:102A2100900032EFF0C374559DFFE49CFED3EF9408
:102A310005EE64809480507BEE7078EF146037145B
:102A4100603B14603F14604614605124057064C2F9
:102A5100AFC2921234111234111234117F50123755
:102A6100A27BFF7A00791E90004C7410F07D017FEB
:102A71001E122F9C80E612369E7038803112369ECF
:102A81007031802A75F0641236A170278020900081
:102A910032E075F0FA84E5F070198012900032E0AE
:102AA100FF7E007C017DF41210D8ED4C70057F5043
:042AB1001237A22214
:0C334C00C1054200A300004200A50005DE
:103923009000A1E0FEA3E0FF0210D8FF90004A74CC
:033933000CF02273
:102CDA009000A2E0240AF09000A1E03400F012343F
:102CEA00575007E49000A3F0A3F07C037DE8123963
:102CFA0023ED4C70291234117C007D6412392312A1
:102D0A00392F7B06122D43EF240E12392E7B071220
:102D1A002D43EF241C12392EFB7D0112298C7F0AC8
:102D2A007E001238B7C39000A2E094E19000A1E0BF
:082D3A00942E4004E4F0A3F024
:102D4200227D0112298C9000A1E0FEA3E0FF7C000D
:062D52007D641210D8227E
:10345700D390007CE0945090007BE094004031D3FF
:1034670090007EE0945090007DE094004022D3903D
:103477000080E0945090007FE094004013C2021255
:1034870035D67F327E001238B7D2021235D6D32214
:02349700C3224E
:10377B001234117F0A7E001238B7D205C292122C76
:10378B00DA12345750F8E49000A3F0A3F0900097AE
:07379B00F01232EAC2052220
:10335800420068001242006A0004420070000842FD
:0933680000660001420062015EF2
:1034DA0090002DE025E02401F582E43400F58322F2
:1034EA00900068E0FCA3E0FD0210C6C3900065E00E
:1034FA009FFF900064E09EFE22F090002DE004F011
:10350A0022FDE0FEA3E0FF02112DE0FCA3E0FDC3D3
:01351A00228E
:1027B300C3EF9DFFEE9C900064F0FAA3EFF0FB9053
:1027C300006AE0FCA3E090007012350B1234EAAD0E
:1027D30003AC021210C6AA06AB0790006CE0FEA37E
:1027E300E0FF1234F51234EAEF2BFBEE3AFAC002A3
:1027F300C003900070E0FCA3E090006612350BA3C9
:102803001234EDAA06AB0790006DE025E0FF9000BF
:102813006CE033FE1234F590006FE02FFD90006EF4
:10282300E03EFCAF03AE021210C6D0E02FFFD0E0B3
:102833003EFE90006CE0FDA3E0A3CDF0A3EDF0908D
:102843000064E0FDA3E090006CCDF0A3EDF002394D
:012853008103
:082F2D00900000EEF0A3EFF0AC
:102F3500FDAC06E4120EC3C004C005C006C0079070
:102F4500000612134040000000D007D006D005D07F
:102F550004121E1C7B407A1C793078B9120D18C0FA
:102F650004C005C006C007900000E0FCA3E0FDE436
:102F7500120EC37BCD7A197918783F120D18D0033C
:102F8500D002D001D000120C277BEB7A5B791A783E
:072F9500C2120C27020EFC22
:0521B700900000EFF0B4
:1021BC00E490002BF0A3F0A3F0900000E0FF90005F
:1021CC002DE0C39F503C7F0F122DD17C047DA6CFF8
:1021DC00CDCFCECCCE1210D8EF25E025E090002E3E
:1021EC00F0A3E4F0FF122DD190002EE01313543F16
:1021FC00FD7C001210C61234DAEEF0A3EF12350398
:10220C0080B7900001E0FEA3E0FF900029EEF0A360
:10221C00EFF0E490002DF0900000E0FD90002DE038
:10222C00FCC39D5036EC1234DE12351490002AE0BB
:10223C009D900029E09C500F1234DAE0FDA3E09051
:10224C000029CDF0A3EDF01234DA1235149FEC9E78
:10225C005004AE04AF0512350480BCE490002DF0A0
:10226C00900000E0F990002DE0FDC3995019ED129B
:10227C0034DEE0FCA3E0FD90002CE02DF090002B70
:10228C00E03C12350380D990002912351490002CB3
:10229C00E09DFD90002BE09CFCC3ED9FFFEC9EFEAF
:0B22AC00E924FEFDE434FFFC0210D822
:10251A00900001121087FFE5DE54F04FF5DE9000BF
:10252A0002121087B4010543BC80800353BC7F901C
:10253A000003121087B4010543DE20800353DEDF57
:10254A00900005121087B40104D2AD8002C2AD908A
:10255A000004121087FFD39403505DEF700553B740
:10256A00DFC2BDEFB4010553B7DFD2BDEFB4020538
:10257A0043B720C2BDEFB4030543B720D2BD121042
:10258A006EFFD3941F5031900006121087FED39429
:10259A00015025900007121087FDD3940350194368
:1025AA00BA80EDC43354E0FDEEC433333354804D66
:0925BA004F90FEA8F053BA7F22F5
:0C397500EFB4010443BC802253BC7F224D
:102DD100EFD3940F4002806BE4F5BDF5BEE5BC5422
:102DE100F044404FF5BC000000000000000000006E
:102DF100E4FDE5BC30E54753BCDFE5DEAFBD30E5C2
:102E01000DEFFEACBEECFBEBFF900030802290009A
:102E110030E4F0A3EFF0E5BEC4540FFBE0C4F85476
:102E21000FC868FF900030E0C454F048FEEF4BFF3C
:102E3100EEF0A3EFF0900030E0FEA3E0FF220DEDF5
:072E4100B4FAAF7E107F0020
:012E48002267
:03002B000239C7D0
:0439C70053BCDF32DC
:1038B7007DB87C0BED1D70011C144C70F7EF1F7069
:0638C700011E144E70EA20
:0138CD0022D8
:0939A200007F057EDCDEFEDFFC87
:0139AB0022F9
:0639BC00900001021087DB
:101A8B00EFD3940740037F012212106EFED3940311
:101A9B0040037F0222EF7035EE70081239BCF4520E
:101AAB0093529412106EB401081239BC4293F45243
:101ABB009412106EFEB402071239BC42934294EE9C
:101ACB00B4030A1239BCFEF45293EE4294EF640154
:101ADB00703712106EFE70081239BCF4529152928C
:101AEB00EEB401081239BC4291F4529212106EB44A
:101AFB0002071239BC4291429212106EB4030A12C1
:101B0B0039BCFEF45291EE4292EF64027037121020
:101B1B006EFE70081239BCF452955296EEB4010861
:101B2B001239BC4295F4529612106EB40207123958
:101B3B00BC4295429612106EB4030A1239BCFEF4E5
:101B4B005295EE4296EF6403703712106EFE7008DA
:101B5B001239BCF452B152B2EEB401081239BC4284
:101B6B00B1F452B212106EB402071239BC42B14238
:101B7B00B212106EB4030A1239BCFEF452B1EE422B
:101B8B00B2EF6404703712106EFE70081239BCF499
:101B9B0052B352B4EEB401081239BC42B3F452B48E
:101BAB0012106EB402071239BC42B342B412106E5B
:101BBB00B4030A1239BCFEF452B3EE42B4EF64051F
:101BCB00703712106EFE70081239BCF452C952CA2B
:101BDB00EEB401081239BC42C9F452CA12106EB4E9
:101BEB0002071239BC42C942CA12106EB4030A1260
:101BFB0039BCFEF452C9EE42CAEF640670371210BC
:101C0B006EFE70081239BCF452CB52CCEEB4010804
:101C1B001239BC42CBF452CC12106EB402071239FB
:101C2B00BC42CB42CC12106EB4030A1239BCFEF488
:101C3B0052CBEE42CCEF6407703712106EFF700878
:101C4B001239BCF452E152E2EFB401081239BC4232
:101C5B00E1F452E212106EB402071239BC42E142B7
:101C6B00E212106EB4030A1239BCFFF452E1EF42D8
:041C7B00E27F0022E2
:093371004100980042009900009F
:1036D600E58954CF4EF589900003021087900005C6
:1036E60002118F900001021087900002021087904D
:0B36F6000004021087900007021087FC
:03000B00021C7F55
:101C7F00C0E0C0F0C083C082C0D075D000C000C02B
:0D1C8F0001C002C003C004C005C006C007AC
:101C9C0030050A9000A0E4F0C292021E0190009858
:101CAC00E004F09000A0E0FF900098E0FED39F507D
:101CBC0004D2928002C292EE64646003021E019010
:101CCC000098F07F0A1221B7900060EEF0A3EFF0BD
:101CDC007F0E122DD17C007D031210C6AC06AD0711
:101CEC00E4120EC3E4FBFA797A7844120E219000C8
:101CFC0004121334900008121340461C40007F332A
:101D0C007E337D537C401236A9C004C005C006C08A
:101D1C00079000041213404557F00090000812136E
:101D2C0040461C400090000C12134041C80000D0EB
:101D3C0007D006D005D0041230BB120EFC900072F6
:101D4C00EEF0A3EFF07F01122DD17C007D23121059
:101D5C00C6900079EEF0A3EFF0900060E0FEA3E0F7
:101D6C00FF90009BEEF0A3EFF0C39464EE94005050
:101D7C0009900060E4F0A37464F0900060E0FEA3AE
:101D8C00E0FF122F2D900060EEF0A3EFF090009D7D
:101D9C00E0FF900061E02FF0900060E03400F0E094
:101DAC00FEA3E0FF900074EEF0A3EFF0C39426EED8
:101DBC009402500E900062E0FCA3E0FDC39FEC9EE9
:101DCC0050079000A0E4F08020C3EF94B4EE940090
:101DDC0050089000A0745FF0800F1227B37C007D38
:101DEC000F1210D89000A0EFF09000A0E0D3945FF9
:051DFC004003745FF0DC
:101E0100D007D006D005D004D003D002D001D00035
:0B1E1100D0D0D082D083D0F0D0E032DF
:03001B000222B707
:1022B700C0E0C0F0C083C082C0D075D000C000C0ED
:0D22C70001C002C003C004C005C006C0076E
:1022D40090009AE004F07006900099E004F0122D4A
:1022E40058900099A3E0FF900072E0FCA3E0FD1277
:1022F4002A21900099E0B4011AA3E0B4F4159000E7
:10230400A4E004F070069000A3E004F0900099E4C7
:10231400F0A3F0D390007CE0945090007BE0940014
:102324004025D390007EE0945090007DE0940040DE
:1023340016D3900080E0945090007FE09400400712
:102344009000A3E4F0A3F09000A3E0FEA3E0FFE478
:10235400FCFD7BFF7AFFF9F8D31212F2500A9000C9
:08236400A374EAF0A37460F019
:10236C00D007D006D005D004D003D002D001D000C5
:0B237C00D0D0D082D083D0F0D0E0326F
:030063000239CB94
:0339CB00B2B7325E
:10160600AD07EDD3940440037F0122ED600302167B
:10161600A6C28C1236EFB40104D2A98002C2A91266
:1016260036E9FED3940340037F0222EE700553B7DA
:10163600FDC2B91236E9B4010553B7FDD2B9123667
:10164600E9FFB4020543B702C2B9EFB4030543B7D5
:1016560002D2B912106EFEC3940340037F02221217
:1016660036D6FFB40103538E7FEF7003438E80EFAF
:10167600B4020543890480035389FB1236F5B4018D
:1016860005438F018003538FFE1236E3E5F0F58C98
:101696001236E3F58A1236FBB40102D28C7F0022A1
:1016A600ED6401600302173DC28E1236EFB40104E9
:1016B600D2AB8002C2AB1236E9FED3940340037F5D
:1016C6000222EE700553B7F7C2BB1236E9B4010524
:1016D60053B7F7D2BB1236E9FFB4020543B708C2C7
:1016E600BBEFB4030543B708D2BB12106EFEC3941A
:1016F6000340037F02221236D6FFB40103538EBF86
:10170600EF7003438E40EFB40205438940800353D4
:1017160089BF1236F5B40105438F028003538FFD4E
:101726001236E3E5F0F58D1236E3F58B1236FBB48F
:101736000102D28E7F0022ED64027060538EEF129A
:1017460036EFB4010543AF04800353AFFB1236DD19
:10175600FED3940240037F0222EEB40103538EFBB4
:101766001236DD7003438E041236DDB40205438E55
:10177600088003538EF71236F5B40105438F0480B3
:1017860003538FFB1236E3E5F0F5D61236E3F5D7B1
:101796001236FBB40103438E107F0022ED64037002
:1017A6006053D1F71236EFB4010543AF20800353DF
:1017B600AFDF1236DDFED3940240037F0222EEB481
:1017C600010353D1FD1236DD700343D1021236DD1B
:1017D600B4020543D104800353D1FB1236F5B4019C
:1017E6000543D101800353D1FE1236E3E5F0F5D46B
:1017F6001236E3F5D51236FBB4010343D1087F0058
:1018060022ED6404706153D17F1236EFB4010543B3
:10181600AF40800353AFBF1236DDFED394024003C0
:101826007F0222EEB4010353D1DF1236DD7003438B
:10183600D1201236DDB4020543D140800353D1BF17
:101846001236F5B4010543D110800353D1EF123699
:10185600E3FDACF0ECF5D2AF058FD31236FBB40145
:0A1866000343D1807F00227F02229D
:05337A0042008100008B
:10351B007B01E090005DFDE4F0A3EDF022E0FEA363
:10352B00E0FFA3E0FBA3E0FAA3E0F9A322AD07AC15
:10353B000675C78075F51E22740129F9E43AFA74F1
:10354B00FFF5F012116345F022ECF5C3AF058FC404
:01355B00224D
:0E396700E4F5C7F5C5F5C675C3FF75C4FF22AC
:10393600A2AF92D5C2AF75C65A75C6A50000A2D56C
:0339460092AF221B
:10380B0012353875C501123554123936E5C212100E
:10381B00B40DBD00010C90005D12354370E8023908
:01382B006735
:0F39580012353875C503123554123936023967E6
:10382C0012353875C50212355412106EF5C21239A4
:10383C00360DBD00010C90005D12354370E8023965
:01384C006714
:103251009000A9ECF0A3EDF09000A7EEF0A3EFF041
:103261001238CE9000A9E0FCA3E0FD6F7001EC6084
:103271002BEDA3F0ECA3F09000A7E0FEA3E0FF127A
:1032810039589000A7E0FEA3E0FF7B017A0079ABFB
:0C32910090005DE4F0A37402F012382CF1
:01329D00220E
:1038CE007B017A0079AE90005DE4F0A304F012382B
:0638DE000B9000AEE0FFBC
:0138E40022C1
:102C5700900049EBF0A3EAF0A3E9F0900047EEF00B
:032C6700A3EFF0E8
:102C6A00E490004DF0C2AF7A00794E90004C1235D4
:102C7A001B12380BE4FF90004CE0FEEFC39E502776
:102C8A0090004912352EE0F582758300121087FDF7
:102C9A00744E2EF582E43400F583E06D60069000F0
:102CAA004DE004F00F80CF90004DE0602090004787
:102CBA00E0FEA3E0FF123958900047123528E09051
:0F2CCA00005D12352112382CE490004DF0D2AF8E
:012CD90022D8
:1028540090004AEBF0A3EAF0A3E9F0900048EEF010
:03286400A3EFF0EF
:10286700C2AF7A00794E90004D12351B12380B908B
:10287700004EE0FFC394054006EFD3941440069042
:10288700004E7405F090004FE0D394504002E4F0FE
:10289700900050E0FFC394144006EFD3942D4006F8
:1028A700900050741EF0900051E0C39405500374DB
:1028B70005F0900051E0D3941E4003740FF0900090
:1028C70048E0FEA3E0FF7B017A00794E90004DE0DF
:1028D700FD90005DE4F0A3EDF012382C9000481253
:0A28E700352812351D12380BD2AF50
:0128F10022C4
:100C2000020F68E86480F8E933E83360110460F08B
:100C3000ED33EC337009E8FCE9FDEAFEEBFF22043A
:100C400060DED3EB9FEA9EE99DE8C2E78CF0C2F735
:100C500095F0400CE8CCF8E9CDF9EACEFAEBCFFB01
:100C6000120F3385D0F05804700320D5B3E8047018
:100C7000075002B2D5020F7292D5EC0460F7E4CCB3
:100C8000C0E0C398F8603B94186008400DD0E0FBCA
:100C9000020F4AE4FBFAC9FC8028E830E406E4C904
:100CA000FBE4CAFCE830E305E4C9CACBFCE854071E
:100CB0006010F8C3E913F9EA13FAEB13FBEC13FC29
:100CC000D8F130F52FC3E49CFCEF9BFFEE9AFEEDCC
:100CD00099FDD0E0FBEF4E4D4C701222DB03020F6A
:100CE0006FEC2CFCEF33FFEE33FEED33FDED30E720
:100CF000EB020F4AEF2BFFEE3AFEED39FDD0E0FBA1
:100D000050130BBB0003020F72ED13FDEE13FEEF49
:080D100013FFEC13FC020F4A73
:100D1800EC4D6011E8497017ED33EC3304600DE4D5
:100D2800FCFFFEFD22E933E8330470F8020F681275
:100D38000F3358046009E4CC248150062850090276
:100D48000F72284003020F6FC0E0EB4A7044B9806D
:100D580006D0E0FB020F5EEF4E701CBD8008EBFF73
:100D6800EAFEE9FD80EBE98DF0A4FEE5F0020E0154
:100D7800E9CDF9EAFEEBFFEF89F0A4FCE5F0CE89B6
:100D8800F0A42EFFE435F0CD89F0A42DFEE435F073
:100D98008067EF4E7005BD80D780C3EF8BF0A4ACA1
:100DA800F0EE8BF0A42CFCE435F0F8EF8AF0A42CDC
:100DB800E5F038FCE433CB8DF0A42CFCE5F03BF8EF
:100DC800EE8AF0A42CFCE5F038F8E433CF89F0A4DF
:100DD8002CFCE5F038CF3400CE89F0A42FFFE5F0E5
:100DE8003EFEE433C98DF0A42EFEE5F039CD8AF03D
:100DF800A42FFFE5F03EFEE43DFD33D0E0FB5007B5
:100E08000BBB000F020F72EC2CFCEF33FFEE33FE2E
:060E1800ED33FD020F4A5C
:100E1E00020F72EC5D046005E859047003020F685E
:100E2E00120F33580460F6EC4860F2EC7004FDFECD
:100E3E00FF22C860DB2481C85009C39860025006A7
:100E4E00020F6F9850CAF582E9294B4A7005AB82A2
:100E5E00020F5E75F0007C1A7880C3EF9BEE9AED60
:100E6E0099400DC3EF9BFFEE9AFEED99FDE842F01F
:100E7E00DC23ACF0D0E0FFD0E0FED0E0FDAB822072
:100E8E00E7101BEB60BAEC2CFCEF33FFEE33FEEDFC
:100E9E0033FD020F4AE803F830E705C0F075F000A5
:100EAE00EF2FFFEE33FEED33FD40B830E7C280AAE0
:100EBE0075F020800E75F010800575F0087D007EAF
:100ECE00007F003392D530D5031212E4EC3340107C
:100EDE00EF33FFEE33FEED33FDEC33FCD5F0ED22B8
:0E0EEE00E5F0247EA2D513CC92E7CDCEFF22F4
:100EFC00EDD2E7CD33EC3392D524814006E4FFFEEE
:100F0C00FDFC22FCE4CFCECDCC24E0501174FF804C
:100F1C00EDC3CC13CCCD13CDCE13CECF13CF0470E9
:070F2C00F030D5DE0212E4F3
:101F82003E9248DA3ECCCCCD3F2AAAAB40000000BC
:101F92003F8000003F9837F03FB504F33FD744FC41
:101FA2003E3172173EB172173F0515913EDE5BD985
:101FB200D2008002C200EDD2E7F8CD33EC330470D8
:101FC2000BBD800592D5020F72020F6840FBD3143D
:101FD20060F2F5F07C3FEE7A00C39496C8948B4091
:101FE200230AC89469C8941A401A0AC89468C89403
:101FF2001F40110AC8945AC89425400805F07A0077
:10200200CDC2E7CDC0F0900010121334EA2323C0F2
:10201200E02492F582E4341FF583121324120C2774
:10202200ECC0E0EDC0E0EEC0E0EFC0E012130890BB
:102032000010121318120C23D0E0FBD0E0FAD0E00B
:10204200F9D0E0B2E7F8120E21900010121334908A
:102052001F827403121021900010121318120D180F
:10206200D0E0600F249EF582E4341FF5831213241E
:10207200120C27900010121334D0E0C3947FFDE4B9
:102082009400FC120EC37B187A727931783F120DDC
:1020920018900010121318120C2730000B7BD97AFB
:0920A2005B79DE783E120D182274
:101E1C00900002121334E4FFFE7D807C3F900002A0
:101E2C00E0F8A3E0F9A3E0FAA3E0FB120F97700629
:101E3C00900002021F76900002E0FCA3E0FDA3E0FC
:101E4C00FEA3E0FF120F7DFBA3E0FCA3E0FDA3E0EB
:101E5C00FEA3E0FF120F7DFFB40108E4FFFE7D80BE
:101E6C007C3F22EF64046029EB64046024EBB40132
:101E7C0030E4FFFEFDFC900006E0F8A3E0F9A3E0DF
:101E8C00FAA3E0FB120F9760084006E4FFFEFDFC8E
:101E9C0022900006121340FFFFFFFF900006021F66
:101EAC0076E490000AF0A3F0FFFEFDFC900002E047
:101EBC00F8A3E0F9A3E0FAA3E0FB120F97505F90B0
:101ECC000006E0FCA3E0FDA3E0FEA3E0FF120EFC85
:101EDC0090000AEEF0A3EFF0FDCCEECCEC120EC3AA
:101EEC00C8ECC8C9EDC9CAEECACBEFCB900006E06E
:101EFC00FCA3E0FDA3E0FEA3E0FF120C23E4FBFA3D
:101F0C00F9F8120F97708A900002E0FCA3E0FDA391
:101F1C00E0FEA3E0FF1210109000021213349000A8
:101F2C0002E0FCA3E0FDA3E0FEA3E0FF121FB690CD
:101F3C000006E0F8A3E0F9A3E0FAA3E0FB120D1809
:101F4C0012292A90000612133490000BE030E0178F
:101F5C00900006E0FCA3E0FDA3E0FEA3E0FF12105E
:101F6C0010900006121334900006E0FCA3E0FDA3D1
:061F7C00E0FEA3E0FF22DD
:100F3300E9D2E7C933E833F892D5EDD2E7CD33EC04
:070F430033FC5002B2D5227D
:100F4A00EC30E7100FBF000C0EBE00080DBD000408
:100F5A000BEB6014A2D5EB13FCED92E7FD2274FFB4
:100F6A00FCFDFEFF22E480F8A2D574FF13FC7D800D
:030F7A00E480EF21
:100F7D00ED33EC33601004700FED547F7005740287
:0A0F8D0092E0227404220422E42200
:100F970074F8CC6480CCC86480C8F58204604FC301
:100FA700EB9FF5F0EA9E42F0E99D42F0E89C45F0A0
:100FB700603C501DE5825FFFE582D313CB5BCBF42A
:100FC7002B5582FB50280ABA002409B90020088053
:100FD7001DE5825BFBE582D313CF5FCFF4C3132FED
:100FE7005582FF50090EBE00050DBD00010CC3EB75
:100FF7009FF5F0EA9E42F0E99D42F0E89C45F060DB
:0910070007CC4820E701B3EC22FC
:10101000ED33EC33600A047003BD8004ECB2E7FCEE
:0110200022AD
:10102100C0E0EFFBEEFAEDF9ECF8120D18D0E0F5A7
:10103100F0EFFBEEFAEDF9ECF8121308A3A3A3A36A
:10104100E8C0E0E9C0E0EAC0E0EBC0E0C0F0120DAA
:1010510018121324A3A3A3A3120C27D0F0D0E0FBF2
:0D106100D0E0FAD0E0F9D0E0F8D5F0D422CC
:1028F20033DA929E35B16011377FE5FE3921848942
:102902003AAEC3FF3C1D955B3D6358473E75FDF0F3
:102912003F3172183F800000C2D5020F72020F6869
:10292200BD80FA50F3020F6FED33EC330460F17B9C
:102932003B7AAA79B8783F120D18ED33EC3392D571
:10294200247B5011A2D570DB500BED44802404503F
:1029520004A2D580CEEFFBEEFAEDF9ECF8120EFCF4
:10296200EFF582F404FC120EC8120C27C0829028E4
:10297200F27409121030ED33CC33D0F092D525F039
:0A298200A2D57001C313CC13FD228F
:03000000022B418F
:0C2B4100787FE4F6D8FD758120022B8817
:10106E00BB010689828A83E0225002E722BBFE0280
:09107E00E32289828A83E49322B3
:10108700BB010CE58229F582E5833AF583E022501E
:1010970006E92582F8E622BBFE06E92582F8E22268
:0D10A700E58229F582E5833AF583E4932282
:1010B400BB010689828A83F0225002F722BBFE011B
:0210C400F32215
:1010C600EF8DF0A4A8F0CF8CF0A428CE8DF0A42E3E
:0210D600FE22F8
:1010D800BC000BBE0029EF8DF084FFADF022E4CCFC
:1010E800F875F008EF2FFFEE33FEEC33FCEE9DECC5
:1010F800984005FCEE9DFE0FD5F0E9E4CEFD22ED0B
:10110800F8F5F0EE8420D21CFEADF075F008EF2F54
:10111800FFED33FD4007985006D5F0F222C398FD45
:051128000FD5F0EA22E2
:10112D00C2D5EC30E709B2D5E4C39DFDE49CFCEEDD
:10113D0030E715B2D5E4C39FFFE49EFE1210D8C36D
:10114D00E49DFDE49CFC80031210D830D507C3E468
:06115D009FFFE49EFE224C
:10116300C5F0F8A3E028F0C5F0F8E5821582700217
:061173001583E038F022B4
:10117900A3F8E0C5F025F0F0E58215827002158329
:06118900E0C838F0E82286
:10118F00BB0110E58229F582E5833AF583E0F5F09E
:10119F00A3E0225009E92582F886F008E622BBFE7B
:1011AF000AE92582F8E2F5F008E222E5832AF583C1
:0811BF00E993F5F0A3E9932286
:1011C700E88FF0A4CC8BF0A42CFCE98EF0A42CFCC7
:1011D7008AF0EDA42CFCEA8EF0A4CDA8F08BF0A445
:1011E7002DCC3825F0FDE98FF0A42CCD35F0FCEBA4
:1011F7008EF0A4FEA9F0EB8FF0A4CFC5F02ECD3969
:0F120700FEE43CFCEAA42DCE35F0FDE43CFC22D5
:1012160075F008758200EF2FFFEE33FECD33CDCC8F
:1012260033CCC58233C5829BED9AEC99E582984012
:101236000CF582EE9BFEED9AFDEC99FC0FD5F0D6EF
:10124600E4CEFBE4CDFAE4CCF9A88222B800C1B919
:101256000059BA002DEC8BF084CFCECDFCE5F0CB57
:10126600F97818EF2FFFEE33FEED33FDEC33FCEB90
:1012760033FB10D703994004EB99FB0FD8E5E4F94B
:10128600FA227818EF2FFFEE33FEED33FDEC33FC38
:10129600C933C910D7059BE99A4007EC9BFCE99A2C
:1012A600F90FD8E0E4C9FAE4CCFB2275F010EF2F71
:1012B600FFEE33FEED33FDCC33CCC833C810D70771
:1012C6009BEC9AE899400AED9BFDEC9AFCE899F8AC
:0E12D6000FD5F0DAE4CDFBE4CCFAE4C8F9223F
:0E12E400C3E49FFFE49EFEE49DFDE49CFC221B
:1012F200EB9FF5F0EA9E42F0E99D42F0EC6480C873
:0613020064809845F02212
:10130800E493FC740193FD740293FE740393FF222B
:0C131800E0F8A3E0F9A3E0FAA3E0FB2258
:10132400E493F8740193F9740293FA740393FB221F
:0C133400ECF0A3EDF0A3EEF0A3EFF0222C
:10134000A8828583F0D083D08212135712135712CC
:101350001357121357E473E493A3C583C5F0C583F1
:10136000C8C582C8F0A3C583C5F0C583C8C582C8F7
:01137000225A
:0C398100EE30E707C3E49FFFE49EFE2247
:102B4D0002329EE493A3F8E493A34003F68001F2CE
:102B5D0008DFF48029E493A3F85407240CC8C33389
:102B6D00C4540F4420C8834004F456800146F6DF58
:102B7D00E4800B0102040810204080903336E47E7F
:102B8D00019360BCA3FF543F30E509541FFEE4934D
:102B9D00A360010ECF54C025E060A840B8E493A314
:102BAD00FAE493A3F8E493A3C8C582C8CAC583CA3F
:102BBD00F0A3C8C582C8CAC583CADFE9DEE780BEF7
:01337F00004D
:00000001FF
