:1034450090013A74FCF0E4900139F07B017A01793E
:10345500397F01121CF690013A7403F0900139741A
:1034650001F0FB7A017939FF121CF690013A74409C
:10347500F09001397401F0FB7A0179397F03121C50
:10348500F690013A7438F09001397403F07B017AB3
:10349500017939FF121CF690013A7487F0900139D1
:1034A5007403F07B017A017939FF121CF690013A19
:1034B50074FFF0E4900139F07B017A0179397F05D9
:0334C500021CF6F0
:103B9C00900139740AF0E490013FF0A304F0E49032
:103BAC00013AF0A304F0A3F0E4A3F0A3F07B017AB4
:0B3BBC00017939122D7C7F0102000E00
:10353900E4900139F0A3F0A304F0A3F0E4A3F0A30D
:1035490074F4F0A37448F0A37401F0FB7A0179399B
:10355900E4FF1216D7E4900139F0A3F0A304F0A315
:10356900F0E4A3F0A374ECF0A37478F0A37401F071
:10357900FB7A017939FF1216D7E490013BF0A3F0E9
:10358900A3F0A374F1F0A3745AF0E4A3F07B017AD9
:083599000179397F020216D707
:103891009001397460F09001437401F074FF90015C
:1038A1003AF0A3F0900152E0FFA3E090013CCFF089
:1038B100A3EFF0E4A3F09001447404F0E490014616
:1038C100F090013F04F0900149F0900147F0FB7A3C
:0738D100017939FF02231900
:1038D8009001527417F0A37470F012344590FE13DF
:1038E8007438F0123B9C123539123891D2AF12312C
:1038F8008FE4FF123C3E7F01123BC77B017A0179BE
:10390800507F01123C5A123A2D123C90123A2D1255
:0739180036C8121A0380FB00
:101CF600EFD394077480948040037F0122120FDE95
:101D0600FED394037480948040037F0222EF7044D4
:101D1600EE700B900001120FF7F452935294120FCB
:101D2600DE6401700B900001120FF74293F4529497
:101D3600120FDEFE6402700A900001120FF7429342
:101D46004294EE6403700D900001120FF7FEF452F8
:101D560093EE4294EF64017046120FDEFE700B9014
:101D66000001120FF7F452915292EE6401700B903B
:101D76000001120FF74291F45292120FDE640270C4
:101D86000A900001120FF742914292120FDE64038D
:101D9600700D900001120FF7FEF45291EE4292EF91
:101DA60064027046120FDEFE700B900001120FF7F0
:101DB600F452955296EE6401700B900001120FF7E3
:101DC6004295F45296120FDE6402700A90000112D8
:101DD6000FF742954296120FDE6403700D900001D4
:101DE600120FF7FEF45295EE4296EF640370461218
:101DF6000FDEFE700B900001120FF7F452B152B2D3
:101E0600EE6401700B900001120FF742B1F452B26A
:101E1600120FDE6402700A900001120FF742B142FF
:101E2600B2120FDE6403700D900001120FF7FEF47C
:101E360052B1EE42B2EF64047046120FDEFE700B32
:101E4600900001120FF7F452B352B4EE6401700B16
:101E5600900001120FF742B3F452B4120FDE64027F
:101E6600700A900001120FF742B342B4120FDE64FB
:101E760003700D900001120FF7FEF452B3EE42B458
:101E8600EF64057046120FDEFE700B900001120F14
:101E9600F7F452C952CAEE6401700B900001120F9A
:101EA600F742C9F452CA120FDE6402700A900001AA
:101EB600120FF742C942CA120FDE6403700D90007A
:101EC60001120FF7FEF452C9EE42CAEF64067046DD
:101ED600120FDEFE700B900001120FF7F452CB5278
:101EE600CCEE6401700B900001120FF742CBF45256
:101EF600CC120FDE6402700A900001120FF742CB7B
:101F060042CC120FDE6403700D900001120FF7FE33
:101F1600F452CBEE42CCEF64077049120FDEFF7E1F
:101F260000700B900001120FF7F452E152E2EF64D9
:101F3600014E700B900001120FF742E1F452E212CB
:101F46000FDE6402700A900001120FF742E142E2CE
:101F5600120FDE6403700D900001120FF7FFF452AA
:071F6600E1EF42E27F0022DF
:103CAA007DB87C0BED1D70011C144C70F7EF1F7072
:063CBA00011E144E70EA29
:013CC00022E1
:0B1F6D0090018EEBF0A3EAF0A3E9F076
:101F7800EF640160030221B090000004F0E4A3F0D4
:101F8800A3F0A3F0A3F0A3F0A3F0FFEFC394807431
:101F9800809480500F74872FF582E43400F583E431
:101FA800F00F80E7E4FFEFC3948074809480500FB3
:101FB80074072FF582E43400F583E4F00F80E7908E
:101FC800018EE0FBA3E0FAA3E0F990000A120FF7F4
:101FD800FD7C00D394037480948040037F0222ED3B
:101FE8004C700553B7EFC2BC90018EE0FBA3E0FA3A
:101FF800A3E0F990000A120FF76401700553B7EFD8
:10200800D2BC90000A120FF7FF7E006402700543ED
:10201800B710C2BCEF64034E700543B710D2BC12B0
:102028000FDEFD7C00D394C07480948040037F024F
:1020380022120FDEFFE598543F4FF598ED64C04C2F
:102048006008EF644060030221339000021212B26C
:102058007FE07E707D727C001211AC9001911212AB
:10206800E2E4FFFE7D01FC900191E0F8A3E0F9A312
:10207800E0FAA3E0FBC312126240037F0222900140
:1020880091E0F8A3E0F9A3E0FAA3E0FBC3E49BFF27
:10209800E49AFE740199FDE498FC9001911212E211
:1020A80090018EE0FBA3E0FAA3E0F9900001120F83
:1020B800F7FB7A0064017038C28E538EFE5389BFD5
:1020C8005389CF438E40900191E0FCA3E0FDA3E04B
:1020D800FEA3E0FF78081212738F8D900191A3A3DD
:1020E800A3E0F58BC2AB5389BF538FFDD28E807AA4
:1020F800EB64024A7032538EEF438E01538EF743DE
:102108008E04900191E0FCA3E0FDA3E0FEA3E0FFB4
:1021180078081212738FD6900191A3A3A3E0F5D784
:1021280053AFFB438E1080427F022290018EE0FB6A
:10213800A3E0FAA3E0F9120FDEFF7E00701490000E
:1021480008120FF764017005438E20801D538EDF3F
:102158008018EF64804E7012900008120FF7640127
:102168007005438780800353877F90018EE0FBA32F
:10217800E0FAA3E0F9900009120FF764017004D2A5
:10218800AC8002C2AC900007120FF764017004D251
:102198009C8002C29C90000B120FF754C0FFE5A26E
:0A21A800543F4FF5A27F00227F0292
:0121B200220A
:103B0E00900003E070FA900002E02487F582E4341E
:103B1E0000F583EFF0900002E004F0C3948074800F
:103B2E0094804002E4F0900003E0700404F0D29917
:013B3E002264
:103CC100120FDEFF600C123B0E740129F9E43AFA7F
:033CD10080EE2260
:030023000232B4F2
:1032B400C0E0C083C082C0D075D000C006C0073053
:1032C4009831C298900006E07029900004E0C394FD
:1032D40080748094804002E4F0900004E0FF04F0E5
:1032E40074072FF582E43400F583E599F090000526
:1032F4007405F0309934C299900002E0FF90000107
:10330400E0FE6F602074872EF582E43400F583E0DC
:10331400F599900001E004F0C39480748094804097
:1033240009E4F08005900003E4F0D007D006D0D083
:07333400D082D083D0E0320B
:0A39660042019500004201970000A5
:03000B00022718B1
:10271800C0E0C0F0C083C082C0D075D000C000C087
:0D27280001C002C003C004C005C006C00708
:10273500900196E004F07006900195E004F0900198
:1027450095E07004A3E0640A70287F0A1233C17C07
:10275500007D0312103690018AEEF0A3EFF07F0E94
:102765001233C17C007D03121036900165EEF0A393
:10277500EFF0900195E07004A3E0645270119001B0
:1027850052F0A3F07B017A0179507F01123C5A90F7
:102795000195E07004A3E0645560030228317F01D0
:1027A5001233C17C007D21121036900167EEF0A333
:1027B500EFF0900195E4F0A3F07F0A1225D0900187
:1027C5006BEEF0A3EFF0900160EEF0A3EFF01224B2
:1027D5007A90016BEEF0A3EFF0D394C2EE94015022
:1027E5002020031D90016BE0FEA3E0FF90016DE04A
:1027F500FCA3E0FD122CA6900152EEF0A3EFF080B1
:1028050007900152E4F0A3F0C390016CE094469068
:10281500016BE09400500A90015274E6F0A37466CF
:0C282500F07B017A0179507F01123C5ACF
:10283100D007D006D005D004D003D002D001D000FB
:0B284100D0D0D082D083D0F0D0E032A5
:03001B0002305759
:10305700C0E0C0F0C083C082C0D075D000C000C03F
:0D30670001C002C003C004C005C006C007C0
:10307400900198E004F07006900197E004F090014C
:1030840097E0B4011AA3E0B4F415900189E004F0C8
:103094007006900188E004F0900197E4F0A3F0C377
:1030A40090018BE0941C90018AE094004007900109
:1030B40088E4F0A3F0900188E0FEA3E0FFE4FCFDC7
:1030C4007BFF7AFFF9F8D312124C500A90018874EE
:0630D400EAF0A37460F0B5
:1030DA00D007D006D005D004D003D002D001D0004A
:0B30EA00D0D0D082D083D0F0D0E032F4
:0300630002000791
:03000700B2B7325B
:1016D700AD07EDD394047480948040037F0122ED1D
:1016E70060030217ACC28C900002120FF7640170FE
:1016F70004D2A98002C2A9900001120FF7FED39469
:10170700037480948040037F0222EEFF7E00700501
:1017170053B7FDC2B9EF64014E700553B7FDD2B997
:10172700EF64024E700543B702C2B9EF64034E700F
:101737000543B702D2B9120FDEFEC3940374809437
:101747008040037F0222E58954CF4EF5899000033C
:10175700120FF7FF7E0064017003538E7FEF4E7008
:1017670003438E80EF64024E700543890480035360
:1017770089FB900004120FF764017005438F018005
:1017870003538FFE9000051210E9E5F0F58C9000E9
:10179700051210E9F58A900007120FF7640170022D
:1017A700D28C7F0022ED64016003021874C28E9010
:1017B7000002120FF764017004D2AB8002C2AB9033
:1017C7000001120FF7FED394037480948040037FC7
:1017D7000222EEFF7E00700553B7F7C2BBEF64012C
:1017E7004E700553B7F7D2BBEF64024E700543B78F
:1017F70008C2BBEF64034E700543B708D2BB120F94
:10180700DEFEC394037480948040037F0222E5893F
:1018170054CF4EF589900003120FF7FF7E00640145
:101827007003538EBFEF4E7003438E40EF64024E3A
:10183700700543894080035389BF900004120FF756
:1018470064017005438F028003538FFD90000512DA
:1018570010E9E5F0F58D9000051210E9F58B900081
:1018670007120FF764017002D28E7F0022ED640227
:10187700707C538EEF900002120FF76401700543DE
:10188700AF04800353AFFB900003120FF7FED3940E
:10189700027480948040037F0222EEFF7E00640181
:1018A7007003538EFBEF4E7003438E04EF64024EBA
:1018B7007005438E088003538EF7900004120FF7CC
:1018C70064017005438F048003538FFB900005125A
:1018D70010E9E5F0F5D69000051210E9F5D790006C
:1018E70007120FF764017003438E107F0022ED6427
:1018F70003707C53D1F7900002120FF76401700553
:1019070043AF20800353AFDF900003120FF7FED3DE
:1019170094027480948040037F0222EEFF7E00646D
:1019270001700353D1FDEF4E700343D102EF640200
:101937004E700543D104800353D1FB900004120F6E
:10194700F76401700543D101800353D1FE90000570
:101957001210E9E5F0F5D49000051210E9F5D590DD
:101967000007120FF76401700343D1087F0022EDCF
:1019770064046003021A0053D17F900002120FF72C
:101987006401700543AF40800353AFBF900003125B
:101997000FF7FD7C00D394027480948040037F028C
:1019A70022ED64014C700353D1DF900003120FF74F
:1019B700700343D120900003120FF76402700543B0
:1019C700D140800353D1BF900004120FF764017018
:1019D7000543D110800353D1EF9000051210E9FDA4
:1019E700ACF0ECF5D2AF058FD3900007120FF76478
:0C19F70001700343D1807F00227F022298
:102D7C00900001120FF7FFE5DE54F04FF5DE9000E6
:102D8C0002120FF76401700543BC80800353BC7FB3
:102D9C00900003120FF76401700543DE208003538B
:102DAC00DEDF900005120FF764017004D2AD8002D3
:102DBC00C2AD900004120FF7FF7E00D39403748011
:102DCC0094805072EF700553B7DFC2BDEF64014EB3
:102DDC00700553B7DFD2BDEF64024E700543B720C8
:102DEC00C2BDEF64034E700543B720D2BD120FDE97
:102DFC00D3941F74809480503D900006120FF7FFFF
:102E0C00D3940174809480502D900007120FF7FE1C
:102E1C00D3940374809480501D43BA80EEC4335411
:102E2C00E0FEEFC433333354804EFF120FDE4F906D
:072E3C00FEA8F053BA7F224B
:0D000E00EF6401700443BC802253BC7F22CC
:1033C100EFD3940F7480948040028073E4F5BDF5CF
:1033D100BEE5BC54F044404FF5BC000000000000C5
:1033E10000000000E4FDEDC394FA74809480504F16
:1033F100E5BC30E54753BCDFE5DEAFBD30E50DEFA1
:10340100FEACBEECFBEBFF9001378022900137E46C
:10341100F0A3EFF0E5BEC4540FFBE0C4F8540FC8AD
:1034210068FF900137E0C454F048FEEF4BFFEEF027
:10343100A3EFF0900137E0FEA3E0FF220D80A77E0D
:03344100107F00F9
:013444002265
:03002B00020003CD
:0400030053BCDF32D9
:100066000000000000000000002F00000000070054
:10007600070000147F147F1400242A7F2A120062CE
:10008600640813230036495522500000050300007A
:1000960000001C224100000041221C000014083E02
:1000A60008140008083E0808000000A060000008C8
:1000B600080808080000606000000020100804021C
:1000C600003E5149453E0000427F400000426151DA
:1000D6004946002141454B31001814127F10002774
:1000E60045454539003C4A49493000017109050337
:1000F60000364949493600064949291E0000363668
:1001060000000000563600000008142241000014CA
:1001160014141414000041221408000201510906A7
:1001260000324959513E007C1211127C007F494928
:100136004936003E41414122007F4141221C007F59
:1001460049494941007F09090901003E4149497A67
:10015600007F0808087F0000417F410000204041E1
:100166003F01007F08142241007F40404040007F4D
:10017600020C027F007F0408107F003E4141413E91
:10018600007F09090906003E4151215E007F0919D9
:1001960029460046494949310001017F0101003FD6
:1001A6004040403F001F2040201F003F4038403F56
:1001B60000631408146300070870080700615149BA
:1001C600454300007F41410000552A552A5500004D
:1001D60041417F00000402010204004040404040CB
:1001E600000001020400002054545478007F484463
:1001F600443800384444442000384444487F00389A
:100206005454541800087E0901020018A4A4A47CC2
:10021600007F080404780000447D4000004080848C
:100226007D00007F102844000000417F4000007CD4
:1002360004180478007C08040478003844444438E0
:1002460000FC242424180018242418FC007C08042C
:10025600040800485454542000043F444020003C05
:100266004040207C001C2040201C003C4030403C8C
:10027600004428102844001CA0A0A07C004464541C
:100286004C44141414141414000000000000000060
:100296000000000000000000000000F80000000060
:1002A600000000333000000000100C06100C0600A1
:1002B600000000000000000040C07840C078400008
:1002C600043F04043F040400007088FC083000006A
:1002D600001820FF211E0000F008F000E0180000C2
:1002E60000211C031E211E0000F00888700000007B
:1002F6001E2123241927211010160E0000000000CD
:100306000000000000000000000000E018040200E9
:10031600000000071820400000020418E00000005A
:100326000040201807000000404080F08040400058
:100336000202010F01020200000000F000000000AE
:100346000101011F01010100000000000000000082
:1003560080B07000000000000000000000000000F7
:100366000001010101010101000000000000000080
:10037600003030000000000000000000806018041B
:10038600006018060100000000E010080810E000F8
:10039600000F102020100F00001010F800000000C1
:1003A6000020203F20200000007008080888700008
:1003B6000030282422213000003008888848300088
:1003C6000018202020110E000000C02010F80000A8
:1003D60000070424243F240000F808888808080041
:1003E6000019212020110E0000E010888818000056
:1003F600000F112020110E0000380808C838080028
:100406000000003F000000000070880808887000A7
:10041600001C222121221C0000E010080810E00028
:100426000000312222110F00000000C0C0000000B1
:1004360000000030300000000000008000000000D6
:1004460000008060000000000000804020100800CE
:100456000001020408102000404040404040400097
:100466000404040404040400000810204080000072
:100476000020100804020100007048080808F00077
:100486000000003036010000C030C828E810E00047
:100496000718272423140B000000C038E0000000D2
:1004A600203C23020227382008F88888887000003C
:1004B600203F202020110E00C03008080808380010
:1004C600071820202010080008F808080810E00087
:1004D600203F202020100F0008F88888E808100028
:1004E600203F20202320180008F88888E8081000FC
:1004F600203F200003000000C03008080838000034
:1005060007182020221E020008F808000008F80834
:10051600203F210101213F20000808F808080000BB
:100526000020203F2020000000000808F8080800EE
:10053600C08080807F00000008F888C02818080066
:10054600203F20012638200008F80800000000009F
:10055600203F20202020300008F8F800F8F8080096
:10056600203F003F003F200008F830C00008F80890
:10057600203F200007183F00E01008080810E000A0
:100586000F10202020100F0008F808080808F000B7
:10059600203F210101010000E01008080810E000DA
:1005A6000F18242438504F0008F88888888870006F
:1005B600203F2000030C302000708808080838000F
:1005C6000038202121221C00180808F80808180005
:1005D6000000203F2000000008F808000008F80886
:1005E600001F202020201F000878880000C8380837
:1005F600000007380E010000F80800F80008F800AF
:10060600033C0700073C0300081868808068180848
:1006160020302C03032C30200838C800C8380800C6
:100626000000203F2000000010080808C838080015
:100636002038262120201800000000FE02020200B9
:100646000000007F40404000000C30C00000000069
:10065600000000010638C00000020202FE00000091
:10066600004040407F000000000004020202040037
:100676000000000000000000000000000000000074
:10068600808080808080808000020204000000005C
:100696000000000000000000000080808080000054
:1006A6000019242222223F2008F800808000000042
:1006B600003F112020110E00000000808080000005
:1006C600000E112020201100000000808088F80014
:1006D600000E112020103F20000080808080000046
:1006E600001F222222221300008080F088888818AA
:1006F6000020203F202000000000808080808000B5
:10070600006B94949493600008F800808080000049
:10071600203F210000203F20008098980000000024
:100726000020203F20200000000000809898000054
:1007360000C08080807F000008F800008080800074
:10074600203F24022D302000000808F80000000099
:100756000020203F20200000808080808080800054
:10076600203F20003F20003F8080008080800000E6
:10077600203F210000203F20000080808080000074
:10078600001F202020201F008080008080000000A5
:1007960080FFA12020110E000000008080808000D4
:1007A600000E112020A0FF808080800080808000C5
:1007B60020203F21200001000000808080808000F2
:1007C6000033242424241900008080E08080000067
:1007D6000000001F202000008080000000808000B4
:1007E600001F202020103F20808080000080808015
:1007F60000010E30080601008080008000808080A5
:100806000F300C030C300F000080800080808000C9
:100816000020312E0E3120008080800000808080F4
:1008260080818E70180601000080808080808000A4
:100836000021302C2221300000000000807C0202C2
:1008460000000000003F404000000000FF000000E4
:1008560000000000FF0000000002027C8000000093
:100866000040403F000000000006010102020404AF
:1008760000000000000000000000C0201010102042
:10088600C00000007F800000000000807F000000A4
:100896000102040404020100000000002020F00010
:1008A600000000000000000000FF00000000000043
:1008B6000000040407040400000000C0201010100B
:1008C600101020C000000100804020100804030022
:1008D600000605040404040404070000E0101010D8
:1008E600101020C00000008000000808081413E063
:1008F60000000304040404040402010000000000D4
:10090600008060F00000000060504C424140FF4013
:10091600400000000000000404070404000000F08A
:10092600101010101010100000800F0402020202B6
:1009360004F8000003040404040404030000000097
:10094600C0201010101060000000FF080402020210
:100956000204F8000000010204040404020100007D
:100966006010101010109070100000000000E018C9
:100976000601000000000000000700000000000063
:1009860000C020101010101020C00000E1120C084A
:1009960008080C12E1000001020404040404020128
:1009A6000000C02010101010204080000007081022
:1009B60010101008847F00000003040404040201E0
:1009C6000000020502F804020202040E8000000084
:1009D6000000010202020201000020222222E23E61
:1009E600E22222222000080402010000070808086B
:1009F6000E008888FF487057758575577000000887
:100A06000F000905030F030509002010FC03080762
:100A1600FC242424040000000F0000000F01010143
:100A2600010000FC24242625242424FC0000000FB9
:100A3600090909090909090F000010D232921000AC
:100A460008FF0808F8000302020203080601080866
:100A560007002010FC03088868FF6888080000006B
:100A66000F000201000F00010200FF4949FF00FFCD
:100A76004949F9494F0007020207000F0400030421
:100A86000E00FE2222FE0008488808FF0800070222
:100A9600020700000009080F000000F902F84949A2
:100AA6004949F901FF00000F0003020202020B0888
:100AB6000F001011F20050CF41414FD0100000003E
:100AC600070208080502050808001017D555577DC6
:100AD6005755D517100008080F08080E08080F0804
:100AE600080000F8888888FF888888F800000001D8
:100AF6000000000F00000001000000129490909F7B
:100B0600909094F200000004040404040404040F0A
:100B1600000004F4555654F404E605F40400000FEE
:100B26000101090F0003080F0000342CF7A4E8A404
:100B3600EA09CA04E80001010F000F020F000308CA
:100B46000F0000000181720C708000000000080494
:100B560002010000000102040800FC242424FF24F2
:100B66002424FC0000000301010107090909090802
:100B76000E0000FE02424242FA42424202000807CA
:0A0B8600080808080F08090A080013
:103C3E00900139EFF07006FD7FA6123B47900139D7
:0C3C4E00E064017006FD7FA7123B4722D6
:103BC700900139EFF0700DFD7FC8123B47E4FD7F90
:103BD700A1123B47900139E06401700DFD7FC012CF
:0A3BE7003B47E4FD7FA0123B47229C
:083D29007F01AE071FEE70FAE6
:013D3100226F
:0F3CE700D294D293123D29C294123D29C2932246
:0A3D1F00C294D293123D29D29422DF
:0F3CF600D294123D29D293123D29C293023D2947
:023B7000AD079F
:103B7200E4FCECC3940874809480501DC293ED3031
:103B8200E704D2948002C294123D29D293123D29B5
:093B9200C293ED25E0FD0C80D981
:013B9B002207
:083B3F00E4FD123B47E4FDFF29
:103B4700AB05AA07123CE77F78123B70123CF6EBF5
:103B570060047F408002E4FF123B70123CF6AF0224
:093B6700123B70123CF6023D1FF6
:073BF100E0FFA3E0FD04F07A
:103BF800A907ED24B0FFE4FD123B47E954F0C45493
:103C08000F4410FFE4FD123B47E9540FFFE4FD02A7
:023C18003B4728
:103A2D00E4F9E9C3940474809480502FE924B0FF25
:103A3D00123B3FE4FD7F10123B47E490013AF090BA
:103A4D00013AE0C3948074809480500C7D01E4FFB2
:0B3A5D00123B47E004F080E70980C73F
:013A6800223B
:08284C00900146EFF0A3EDF04E
:10285400E490014AF0900149E0FFC313FD90014B5D
:10286400F0E4A3F0A3F0EF64087008A3F0A37406E7
:10287400F08031900149E0FF131313541FF5827562
:102884008300EF54077E0060047F0180027F00EF25
:102894002582FFEE3583FE7C0012103690014EEE49
:1028A400F0A3EFF0EB24E090014AF0900146E0FF42
:1028B400A3E0FD123BF8E490014CF0A3F090014E2C
:1028C400E0FCA3E0FD90014CE0FEA3E0FFC39DEE1D
:1028D4009C400302297A90014BE0FD7C00121048D1
:1028E400ED4C700E900149E06408600690014612B8
:1028F4003BF1900149E0F96408701A90014CE0FE44
:10290400A3E0FF90014AE075F006A42466F582E591
:10291400F03400803CE96410701A90014CE0FEA38E
:10292400E0FF90014AE075F010A4248EF582E5F0F2
:102934003402801DE96416703D90014CE0FEA3E072
:10294400FF90014AE075F021A4246EF582E5F0348D
:1029540006F583E5822FF582E5833EF583E493FF54
:102964007D01123B4790014DE004F0700690014C4C
:06297400E004F00228C19E
:01297A00223A
:0837B800900146EFF0A3EDF0D3
:1037C000A31212EE00000001900147E0FF14F0EF99
:1037D0006020A3E0F8A3E0F9A3E0FAA3E0FB9001E6
:1037E00046E0FFE4FCFDFE1211219001481212E2B6
:1037F00080D6900148E0FCA3E0FDA3E0FEA3E0FF3B
:0138000022A5
:082BC60090013AEFF0A3EDF0DD
:102BCE00E4900144F0A3F0900141E0640870069097
:102BDE0001447402F0E4900142F0900140E0FF9055
:102BEE000142E0FEC39F4003022CA5C3EF9E14FDDD
:102BFE007F0A1237B8A804A905AA06AB0790013CB4
:102C0E00E0FCA3E0FDA3E0FEA3E0FF1211ACE47B29
:102C1E000AFAF9F81211AC900143EBF0900145E07D
:102C2E00703C900140E014FF900142E0FEC39F50C3
:102C3E002DA3E07023900141E0FCC313FF900144EB
:102C4E00E02F8EF0A4FF90013AE02FFFA3E0FD905D
:102C5E000149ECF07B2080339001457401F0900126
:102C6E0041E0FEC313FF900144E02FFF900142E0CC
:102C7E00FDEF8DF0A4FF90013AE02FFFA3E0FD9051
:102C8E000143E02430FB900149EEF012284C9001F4
:072C9E0042E004F0022BE804
:012CA500220C
:1034C80090013AEFF0A3EDF0A3EBF0A3EAF0A3E943
:0134D800F003
:1034D900E4900140F090013CE0FBA3E0FAA3E0F99D
:1034E900900140E0F582758300120FF76041900169
:1034F9003AE0FFA3E0FD900140E0FE04F08E827502
:103509008300120FF7FB90013FE0900149F0122868
:103519004C90013FE0FF6408700990013AE02406ED
:0F352900F080B2EFC313FF90013AE02FF080A6BD
:013538002270
:0B2FA80090013AEFF0A3EDF0A3EBF076
:102FB300A3E0FF131313541FFD7C00EF54077E009F
:102FC30060047F0180027F00EF2DFFEE3CFE900145
:102FD3003DE0FD7C00121036900140EEF0A3EFF0CF
:102FE300E490013EF0A3F0900140E0FCA3E0FD90EB
:102FF300013EE0FEA3E0FFC39DEE9C505690013DD1
:10300300E0FD7C00121048ED4C700690013A123B33
:10301300F190013DE0640C703AA3E0FEA3E0FF9061
:10302300013CE075F018A424C8F582E5F03409F5F5
:1030330083E5822FF582E5833EF583E493FF7D01EB
:10304300123B4790013FE004F0709C90013EE00486
:03305300F0809476
:013056002257
:10318F007FC87E00123CAA7FAE123B3F7F10123BDE
:10319F003FE4FD7FB0123B47E4FD7F81123B47E4E4
:1031AF00FD7FFF123B47E4FD7FA1123B47E4FD7F0C
:1031BF00A6123B47E4FD7FA8123B47E4FD7F1F1299
:1031CF003B47E4FD7FC8123B47E4FD7FD3123B41F1
:1031DF00E4FD7FD5123B47E4FD7F80123B47E4FDC2
:1031EF007FD9123B47E4FD7F1F123B47E4FD7FDA97
:1031FF00123B41E4FD7FDB123B47E4FD7F40123B76
:10320F0047E4FD7F8D123B47E4FD7F14123B4712CD
:09321F003A2DE4FD7FAF023B47AC
:03371A0020022169
:10371D0090013F7401F0E4A3F0A3F0A374F1F0A3C2
:10372D00745AF0A37401F0FB7A01793D7F02021601
:01373D00D7B4
:03373E003002282E
:10374100E490013FF0A3F0A3F0A374F1F0A3745A45
:10375100F0E4A3F07B017A01793D7F021216D77F55
:08376100017E00123CAAC2B770
:01376900223D
:10366D00E490013AF0A3F0C20212371A2096177FA8
:10367D00017E00123CAA90013BE004F070EE900137
:10368D003AE004F080E6D20212371A90013AE0FED9
:10369D00A3E0FFD3940AEE9400400BEF94F4EE9464
:1036AD000150037F0122D390013BE094F490013A45
:0A36BD00E0940140037F02227F0029
:0136C70022E0
:1035A100E490013AF0A3F0C20212371A2097177F74
:1035B100017E00123CAA90013BE004F070EE900104
:1035C1003AE004F080E6D20212371A90013AE0FEA6
:1035D100A3E0FFD3940AEE94004010EF94F4EE942C
:1035E10001500890019D7401F08016D3EF94F4EE20
:1035F1009401400890019D7402F08005E490019DC2
:06360100F090019DE0FFC6
:0136070022A0
:10360800E490013AF0A3F0C20212371A2095177F0E
:10361800017E00123CAA90013BE004F070EE90019C
:103628003AE004F080E6D20212371A90013AE0FE3E
:10363800A3E0FFD3940AEE9400400EEF94F4EE94C6
:10364800015006A37401F08016D3EF94F4EE9401B0
:10365800400890013C7402F08005E490013CF09031
:04366800013CE0FF42
:01366C00223B
:0539700042019B000074
:1036C80090019BE0FEA3E0FF123C1A900139EFF055
:1036D80064056014EF6409600FEF640C600AEF641E
:1036E8000F6005EF64147007900139E0FF801F90A8
:1036F800019BE0FEA3E0FF7D057C0012376A900184
:103708009BE0FEA3E0FF123C1A900139EFF012395A
:01371800AB05
:01371900228D
:10002E0090019BE0FEA3E0FF123C1A900139EFF025
:10003E001239EE900139E06F60181239EEEF60124E
:10004E001239EEEFFD7C0090019BE0FEA3E0FF1263
:02005E00376AFF
:01006000227D
:1039AB00EFFD7C0064057007D2B3C2B5C2B422ED43
:1039BB0064094C7007C2B5C2B4C2B322ED640C4C9F
:1039CB007007C2B4C2B3D2B522ED640F4C7007C2FC
:1039DB00B3D2B5D2B422ED64144C7006C2B3D2B4D8
:0339EB00C2B52240
:1039EE0020B30930B40620B5037F142220B309306A
:1039FE00B40630B5037F0F2220B30920B40630B5CC
:103A0E00037F0C2220B30920B40620B5037F0922C0
:0E3A1E0030B30920B40620B5037F0522E4FF73
:013A2C002277
:0E3D0500E4F5C7F5C5F5C675C3FF75C4FF220A
:073C7600ECF5C3AF058FC49C
:103C7D00A2AF92D5C2AF75C65A75C6A50000A2D522
:033C8D0092AF22D1
:103ADC00AD07AC0675C78075F51E75C501123C7631
:103AEC00E5C21210240DBD00010C740129F9E43A51
:103AFC00FA90014774FFF5F01210D345F070DE0216
:023B0C003D0575
:103CD400AD07AC0675C78075F51E75C503123C7635
:033CE400023D0599
:103AA300AD07AC0675C78075F51E75C502ECF5C389
:103AB300AF058FC4120FDEF5C2123C7D0DBD0001B0
:103AC3000C740129F9E43AFA90014574FFF5F012F8
:093AD30010D345F070D7023D0547
:10376A0090013CECF0A3EDF090013AEEF0A3EFF0FB
:10377A00123C1A90013CE0FCA3E0FD6F7002EC6E73
:10378A00602BEDA3F0ECA3F090013AE0FEA3E0FF7A
:10379A00123CD490013AE0FEA3E0FF7B017A017962
:0D37AA003E900145E4F0A37402F0123AA332
:0137B70022EF
:103C1A007B017A017940900147E4F0A37402F01223
:103C2A003ADC900141E0FE900140E07C002400FF74
:033C3A00EC3EFE5F
:013C3D002264
:103A6900537061726B5F5431320025002020003E93
:103A79003E004565656F7200706F776572003A00A8
:103A89006D560056005049443A004B703A0054694B
:0A3A99003A0054643A004D696E00D3
:103975004101850045017D05090C0F1441018200B7
:103C90007BFF7A3A796990013F7410F07D017F08CB
:0A3CA0001234C87FE87E03023CAA3C
:102AA400900139E004F01235A1EF64017010900137
:102AB4006EE0240AF090016DE03400F080161236C6
:102AC40008EF6401700E90016EE024F6F090016D41
:102AD400E034FFF090016DE0FEA3E0FFE4FCFD9024
:102AE400013C1212E29001407403F0A37416F0E466
:102AF400FD7F05122BC6900160E0FEA3E0FFC390AA
:102B0400016EE09FFF90016DE09EFE123D137C007C
:102B14007D6412103690016DE0FCA3E0FD121048B4
:102B2400E4FCFD90013C1212E29001407403F0A316
:102B34007408F07D027F64122BC67BFF7A3A7973A6
:102B440090013F7408F07D027F781234C8900139F7
:102B5400E0640A702E900152E0FEA3E0FF7C027D47
:102B64008F121048E4FCFD90013C1212E2900140E7
:102B74007403F0A37408F0E4FD7F64122BC6E490A0
:102B84000139F07BFF7A3A797390013F7408F0E4DD
:102B9400FD7F781234C8D390016EE094C290016D29
:102BA400E0940140077401F0A374C2F0C390016E75
:102BB400E0946490016DE094005006E4F0A3746422
:012BC400F020
:012BC50022ED
:102E43001235A1EF64017012900182E0C3940574FE
:102E53008094805029E004F08024123608EF640146
:102E63007062900182E0FF7E00D3940074809480AE
:102E7300400CEF9405748094805003E014F09001AB
:102E830082E0247DF582E43401F583E0FF1239AB5F
:102E9300900182E0247DF582E43401F583E0FFE4D0
:102EA300FCFDFE90013C1212E29001407402F0A37B
:102EB3007410F07D027F46122BC612002E7FC87E4F
:102EC30000123CAA900182E0D39404748094804061
:102ED30002E4F0900167E0FEA3E0FFE4FCFD900153
:102EE3003C1212E29001407405F0A37410F0E4FD6B
:052EF3007F46022BC622
:10133900E4900139F0900173E0FEA3E0FFE4FCFDC5
:1013490090013C1212E29001407403F0A37410F072
:10135900E4FD7F69122BC6900175E0FEA3E0FFE46E
:10136900FCFD90013C1212E29001407402F0A3745A
:1013790010F07D027F2D122BC6900171E0FEA3E0D3
:10138900FFE4FCFD90013C1212E29001407402F06E
:10139900A37410F07D027F6E122BC67BFF7A3A7917
:1013A9007590013F7410F07D027F411234C87BFFB4
:1013B9007A3A797590013F7410F07D02E4FF123496
:1013C900C87BFF7A3A797890013F7410F0E4FD7F89
:1013D900411234C8900139E060030214B81235A1F2
:1013E900900183EFF0123608900184EFF0900183A9
:1013F900E0FF7E0064017010900174E004F0700653
:10140900900173E004F08023900184E0640170107E
:10141900900174E024FFF0900173E034FFF0800B39
:10142900EF64024E700590013904F0900173E0FEFB
:10143900A3E0FFE4FCFD90013C1212E2900140742C
:1014490003F0A37410F0E4FD7F69122BC612366D08
:10145900EF6401700C900185E004F0900139740388
:10146900F0D3900174E09496900173E094004006E3
:10147900E4F0A37496F0C3900174E09401900173B1
:10148900E094005005E4F0A304F0900188E0FEA385
:10149900E0FF7C007D3C121048D390018DE09F90C5
:1014A900018CE09E40030213DD1238490213DD7BF3
:1014B900FF7A3A797590013F7410F07D027F4112ED
:1014C90034C87BFF7A3A797890013F7410F07D0235
:1014D900E4FF1234C87BFF7A3A797590013F7410A2
:1014E900F0E4FD7F411234C8900139E064016003E2
:1014F9000215C81235A1900183EFF0123608900148
:1015090084EFF0900183E0FF7E0064017010900188
:1015190076E004F07006900175E004F080249001F3
:1015290084E064017010900176E024FFF090017569
:10153900E034FFF0800CEF64024E700690013974BC
:1015490002F0900175E0FEA3E0FFE4FCFD90013C90
:101559001212E29001407402F0A37410F07D027F30
:101569002D122BC612366DEF6401700C900185E0C7
:1015790004F09001397403F0D3900176E0946490FB
:101589000175E094004006E4F0A37464F0C390018F
:1015990075E094005004E4F0A3F0900188E0FEA304
:1015A900E0FF7C007D3C121048D390018DE09F90B4
:1015B900018CE09E40030214F11238490214F17BB8
:1015C900FF7A3A797890013F7410F07D027F4112D9
:1015D90034C87BFF7A3A797590013F7410F07D0227
:1015E900E4FF1234C87BFF7A3A797590013F741091
:1015F900F0E4FD7F411234C8900139E064026003D0
:101609000216D61235A1900183EFF0123608900127
:1016190084EFF0900183E0FF7E0064017010900177
:1016290072E004F07006900171E004F080229001EC
:1016390084E064017010900172E024FFF090017160
:10164900E034FFF0800AEF64024E7004900139F033
:10165900900171E0FEA3E0FFE4FCFD90013C121251
:10166900E29001407402F0A37410F07D027F6E12C3
:101679002BC612366DEF6401700C900185E004F001
:101689009001397403F0D3900172E0946490017170
:10169900E094004006E4F0A37464F0C3900171E0A3
:1016A90094005004E4F0A3F0900188E0FEA3E0FF69
:1016B9007C007D3C121048D390018DE09F90018CF5
:0D16C900E09E40030216011238490216018E
:0116D60022F1
:10333B0090018CE0FEA3E0FFE4FCFD90013C121237
:10334B00E29001407402F0A37410F07D027F28120A
:10335B002BC61235A1EF6401701090018DE004F0C3
:10336B00701E90018CE004F08016123608EF640199
:10337B00700E90018DE024FFF090018CE034FFF093
:10338B00C390018DE0940190018CE094005005E412
:10339B00F0A304F0900188E0FEA3E0FFE4FCFD90B5
:1033AB00013C1212E29001407403F0A37410F07D03
:0633BB0002E4FF022BC634
:101A0300123A2D90013D740CF0E4FB7D017F281206
:101A13002FA87BFF7A3A797B90013F7408F07D020F
:101A23007F461234C87BFF7A3A798190013F74086C
:101A3300F0E4FD7F461234C8900185E070329001D6
:101A430088E0FEA3E0FF7C007D3C121048D39001A8
:101A53008DE09F90018CE09E5003123849122AA416
:101A630012366DEF640170D0900185E004F080C8F8
:0E1A7300123A2D900185E064016003021B9F72
:101A8100C201900188E0FEA3E0FF7C007D3C1210C2
:101A910048D390018DE09F90018CE09E5003123855
:101AA1004990013D740CF07B0DE4FDFF122FA890CD
:101AB100013D740CF07B0EE4FD7F0E122FA8900106
:101AC1003D740CF07B11E4FD7F1C122FA890013DA9
:101AD100740CF07B12E4FD7F2A122FA87BFF7A3A67
:101AE100798790013F7410F0E4FD7F371234C8907C
:101AF100013D740CF07B0F7D02E4FF122FA89001D1
:101B01003D740CF07B107D027F0E122FA890013DD9
:101B1100740CF07B117D027F1C122FA890013D7483
:101B21000CF07B127D027F2A122FA87BFF7A3A7973
:101B31008790013F7410F07D027F371234C8200175
:101B410020D2011239EEE4FCFDFE90013C1212E2BA
:101B51009001407402F0A37410F07D027F46122BB5
:101B6100C67BFF7A3A798990013F7410F0E4FD7FDA
:101B71006E1234C87BFF7A3A798C90013F7410F071
:101B81007D027F6E1234C8122E4312366DEF64014E
:0B1B91007006900185E004F012002EA9
:101B9C00021A76123A2D900185E06402705F7BFF89
:101BAC007A3A798E90013F7410F0E4FD7F0A12347A
:101BBC00C87BFF7A3A799390013F7410F0E4FD7F73
:101BCC00551234C87BFF7A3A799790013F7410F024
:101BDC007D027F141234C87BFF7A3A799B90013FC7
:101BEC007410F07D027F551234C812133912366D01
:101BFC00EF640170A1900185E004F08099123A2DF8
:101C0C00900185E064036003021CE6900188E0FE0D
:101C1C00A3E0FF7C007D3C121048D390018DE09F27
:101C2C0090018CE09E500312384990013D740CF0E9
:101C3C007B0AE4FDFF122FA890013D740CF07B0B86
:101C4C00E4FD7F0E122FA890013D740CF07B01E493
:101C5C00FD7F1C122FA890013D740CF07B02E4FD5B
:101C6C007F2A122FA890013D740CF07B03E4FD7FBA
:101C7C0038122FA890013D740CF07B04E4FD7F46D4
:101C8C00122FA890013D740CF07B05E4FD7F5412DB
:101C9C002FA890013D740CF07B06E4FD7F62122F9F
:101CAC00A890013D740CF07B07E4FD7F70122FA807
:101CBC007BFF7A3A799F90013F7410F07D027F464A
:101CCC001234C812333B12366DEF64016003021CF0
:101CDC000C900185E004F0021C0C900185E0D3947B
:0A1CEC0003748094804002E4F022AB
:10231900EF6401600302247743BA8090000A120F28
:10232900F7FF7E00D3940374809480502DEF7006DC
:1023390053EEF753DFF7EF64014E700653EEF743A0
:10234900DF08EF64024E700643EE0853DFF7EF64CF
:10235900034E700643EE0843DF0890FECCE4F0A379
:10236900F0120FDEFF90FEC9E0548F4FF090000885
:10237900120FF7640190FEC87006E04408F080046B
:10238900E054F7F0900009120FF7640190FEC8704D
:1023990006E04404F08004E054FBF0900006120FBC
:1023A900F7640190FECC7006E04410F08004E0541C
:1023B900EFF0900007120FF7640190FECC7006E071
:1023C9004440F08004E054BFF09000011210E9FF8E
:1023D90090FED2E5F0F0A3EFF09000031210E9FFB0
:1023E90090FED7E5F0F0A3EFF090000C120FF790F4
:1023F900FEC17007E054FEFFF08005E04401FFF0E4
:1024090090FEC1EFF090000D120FF790FEB2F09020
:10241900000B120FF790FEB1F0900005120FF79024
:10242900FEDEF090000F120FF7640190FEDD7006DA
:10243900E04410F08004E054EFF0900010120FF720
:10244900640190FEDD7006E04480F08004E0547F72
:10245900F090000E120FF7640190FEC07006E04480
:1024690001F08004E054FEF053BA7F7F00227F021E
:012479002240
:103C5A0043BA80EF640170109000021210E9FF90DD
:0C3C6A00FED7E5F0F0A3EFF053BA7F2284
:103985004201730096420175000542017B00084221
:093995000171000242016D012CD8
:102CA600C3EF9DFFEE9C90016FF0FAA3EFF0FB904F
:102CB6000175E0FCA3E0FD90017BE0FEA3E0FF12BE
:102CC600109D900173E0FCA3E0FD121036AD03AC3D
:102CD60002121036AA06AB07900177E0FEA3E0FFCA
:102CE600C3900170E09FFF90016FE09EFE9001731C
:102CF600E0FCA3E0FD121036EF2BFBEE3AFAC00221
:102D0600C00390017BE0FCA3E0FD900171E0FEA30F
:102D1600E0FF12109DA3E0FCA3E0FD121036AA0608
:102D2600AB07900178E025E0FF900177E033FEC322
:102D3600900170E09FFF90016FE09EFE90017AE0A7
:102D46002FFD900179E03EFCAF03AE02121036D0A3
:102D5600E02FFFD0E03EFE900177E0FDA3E0A3CD9B
:102D6600F0A3EDF090016FE0FDA3E0900177CDF0C8
:062D7600A3EDF0023D1385
:08247A00900107EEF0A3EFF062
:1024820090010D1212EEC10000007F007E007D203F
:102492007C411221B3E4FBFAF97840120C88C004A3
:1024A200C005C006C007900107E0FCA3E0FDE412EE
:1024B2000D93C004C005C006C00790010D1212EEB4
:1024C20040400000D007D006D005D0041221B3D07E
:1024D20003D002D001D000120C88C004C005C0068F
:1024E200C00790010D1212EEC13000007F007E0085
:1024F2007D207C411221B3E4FBFAF97840120C886A
:10250200C004C005C006C007900107E0FCA3E0FDBF
:10251200E4120D93C004C005C006C00790010D125D
:1025220012EE40800000D007D006D005D004122160
:10253200B3D003D002D001D000120C88D003D00255
:10254200D001D000120B97C004C005C006C007908E
:102552000107E0FCA3E0FDE4120D93C004C005C036
:1025620006C00790010D1212EE40000000D007D005
:1025720006D005D0041221B37B177AB779D1783906
:10258200120C88A804A905AA06AB07D007D006D06A
:1025920005D004120B93C004C005C006C007900109
:1025A20007E0FCA3E0FDE4120D937B7F7A6A794C8D
:1025B200783F120C88D003D002D001D000120B97C2
:0E25C2007B027A2B79C27841120B97020DCC66
:0525D000900107EFF08F
:1025D500E4900132F0A3F0A3F0900107E0FF900131
:1025E50034E0C39F504C7F0F1233C17C047DA6CFCE
:1025F500CDCFCECCCE121048EF25E025E0900135A9
:10260500F0A3E4F0FF1233C1900135E01313543FFA
:10261500FD7C00121036900134E025E02408F58297
:10262500E43401F583EEF0A3EFF0900134E004F01B
:1026350080A7900108E0FEA3E0FF900130EEF0A333
:10264500EFF0E4900134F0900107E0FD900134E0F3
:10265500FCC39D505FEC25E02408F582E43401F5C8
:1026650083E0FCA3E0FDC3900131E09D900130E0E3
:102675009C501B900134E025E02408F582E43401E8
:10268500F583E0FDA3E0900130CDF0A3EDF09001DE
:1026950034E025E02408F582E43401F583E0FCA369
:1026A500E0FDC39FEC9E5004AE04AF05900134E0FD
:1026B50004F08093E4900134F0900107E0F9900173
:1026C50034E0FDC3995025ED25E02408F582E43476
:1026D50001F583E0FCA3E0FD900133E02DF09001CE
:1026E50032E03CF0900134E004F080CD900130E020
:1026F500FCA3E0FDC3900133E09DFD900132E09C19
:10270500FCC3ED9FFFEC9EFEE924FEFDE434FFFCD7
:0327150002104867
:0C399E00C103420188000042018C0005BA
:1038010090013A7460F09001447401F074FF9001EA
:103811003BF0A3F0900152E0FFA3E090013DCFF017
:10382100A3EFF0E4A3F09001457404F0E4900147A4
:10383100F0900140F090014AF0900148F07B017A4C
:0838410001793A7F010223190D
:10391F0090013A7460F09001447401F074FF9001CB
:10392F003BF0A3F0900152E0FFA3E090013DCFF0F8
:10393F00A3EFF0E4A3F09001457404F0E490014785
:10394F00F090014004F090014AF0900148F0FB7AAA
:07395F0001793AFF02231970
:102EF800900187E0240AF0900186E03400F0C39046
:102F0800018BE0941C90018AE094004007E4900152
:102F180088F0A3F0900186E0FEA3E0FF7C037DE843
:102F2800121048ED4C705E123A2D900186E0FEA317
:102F3800E0FF7C007D6412104890013D740CF07B2A
:102F4800067D01122FA8900186E0FEA3E0FF7C0019
:102F58007D64121048EF240EFF90013D740CF07B45
:102F6800077D01122FA8900186E0FEA3E0FF7C00F8
:102F78007D64121048EF241CFF90013D740CF0FB97
:102F88007D01122FA87F0A7E00123CAAC3900187F8
:0F2F9800E094E1900186E0942E4004E4F0A3F071
:012FA7002207
:10384900123A2D123801D203C292122EF8C39001F6
:103859008BE0941C90018AE094004007E490018871
:10386900F0A3F0900188E0FEA3E0FF7C007D3C120C
:103879001048D390018DE09F90018CE09E40CB12BF
:08388900391F121A03C20322C9
:100B9000020E38E86480F8E933E83360110460F04D
:100BA000ED33EC337009E8FCE9FDEAFEEBFF2204CB
:100BB00060DED3EB9FEA9EE99DE8C2E78CF0C2F7C6
:100BC00095F0400CE8CCF8E9CDF9EACEFAEBCFFB92
:100BD000120E0385D0F05804700320D5B3E80470DA
:100BE000075002B2D5020E4292D5EC0460F7E4CC75
:100BF000C0E0C398F8603B94186008400DD0E0FB5B
:100C0000020E1AE4FBFAC9FC8028E830E406E4C9C5
:100C1000FBE4CAFCE830E305E4C9CACBFCE85407AE
:100C20006010F8C3E913F9EA13FAEB13FBEC13FCB9
:100C3000D8F130F52FC3E49CFCEF9BFFEE9AFEED5C
:100C400099FDD0E0FBEF4E4D4C701222DB03020EFB
:100C50003FEC2CFCEF33FFEE33FEED33FDED30E7E0
:100C6000EB020E1AEF2BFFEE3AFEED39FDD0E0FB62
:100C700050130BBB0003020E42ED13FDEE13FEEF0B
:080C800013FFEC13FC020E1A35
:100C8800EC4D6011E8497017ED33EC3304600DE466
:100C9800FCFFFEFD22E933E8330470F8020E381237
:100CA8000E0358046009E4CC248150062850090238
:100CB8000E42284003020E3FC0E0EB4A7044B98060
:100CC80006D0E0FB020E2EEF4E701CBD8008EBFF35
:100CD800EAFEE9FD80EBE98DF0A4FEE5F0020D7176
:100CE800E9CDF9EAFEEBFFEF89F0A4FCE5F0CE8947
:100CF800F0A42EFFE435F0CD89F0A42DFEE435F004
:100D08008067EF4E7005BD80D780C3EF8BF0A4AC31
:100D1800F0EE8BF0A42CFCE435F0F8EF8AF0A42C6C
:100D2800E5F038FCE433CB8DF0A42CFCE5F03BF87F
:100D3800EE8AF0A42CFCE5F038F8E433CF89F0A46F
:100D48002CFCE5F038CF3400CE89F0A42FFFE5F075
:100D58003EFEE433C98DF0A42EFEE5F039CD8AF0CD
:100D6800A42FFFE5F03EFEE43DFD33D0E0FB500745
:100D78000BBB000F020E42EC2CFCEF33FFEE33FEF0
:060D8800ED33FD020E1A1E
:100D8E0075F020800E75F010800575F0087D007EE0
:100D9E00007F003392D530D50312123EEC33401053
:100DAE00EF33FFEE33FEED33FDEC33FCD5F0ED22E9
:0E0DBE00E5F0247EA2D513CC92E7CDCEFF2225
:100DCC00EDD2E7CD33EC3392D524814006E4FFFE1F
:100DDC00FDFC22FCE4CFCECDCC24E0501174FF807E
:100DEC00EDC3CC13CCCD13CDCE13CECF13CF04701B
:070DFC00F030D5DE02123ECB
:1021B3009001091212E2E4FFFE7D807C3F90010949
:1021C300E0F8A3E0F9A3E0FAA3E0FB120E677006C0
:1021D30090010902230D900109E0FCA3E0FDA3E0B7
:1021E300FEA3E0FF120E4DFBA3E0FCA3E0FDA3E082
:1021F300FEA3E0FF120E4DFFB40108E4FFFE7D8055
:102203007C3F22EF64046029EB64046024EBB40197
:1022130030E4FFFEFDFC90010DE0F8A3E0F9A3E03C
:10222300FAA3E0FB120E6760084006E4FFFEFDFC24
:102233002290010D1212EEFFFFFFFF90010D02230A
:102243000DE4900111F0A3F0FFFEFDFC900109E005
:10225300F8A3E0F9A3E0FAA3E0FB120E67505F9046
:10226300010DE0FCA3E0FDA3E0FEA3E0FF120DCC13
:10227300900111EEF0A3EFF0FDCCEECCEC120D9338
:10228300C8ECC8C9EDC9CAEECACBEFCB90010DE0CB
:10229300FCA3E0FDA3E0FEA3E0FF120B93E4FBFA33
:1022A300F9F8120E67708A900109E0FCA3E0FDA320
:1022B300E0FEA3E0FF120EE09001091212E290018A
:1022C30009E0FCA3E0FDA3E0FEA3E0FF1229AF9029
:1022D300010DE0F8A3E0F9A3E0FAA3E0FB120C88F8
:1022E30012312D90010D1212E2900112E030E0172D
:1022F30090010DE0FCA3E0FDA3E0FEA3E0FF120EBE
:10230300E090010D1212E290010DE0FCA3E0FDA3A9
:06231300E0FEA3E0FF2242
:100E0300E9D2E7C933E833F892D5EDD2E7CD33EC35
:070E130033FC5002B2D522AE
:100E1A00EC30E7100FBF000C0EBE00080DBD000439
:100E2A000BEB6014A2D5EB13FCED92E7FD2274FFE5
:100E3A00FCFDFEFF22E480F8A2D574FF13FC7D803E
:030E4A00E480EF52
:100E4D00ED33EC33601004700FED547F70057402B8
:0A0E5D0092E0227404220422E42231
:100E670074F8CC6480CCC86480C8F58204604FC332
:100E7700EB9FF5F0EA9E42F0E99D42F0E89C45F0D1
:100E8700603C501DE5825FFFE582D313CB5BCBF45B
:100E97002B5582FB50280ABA002409B90020088084
:100EA7001DE5825BFBE582D313CF5FCFF4C3132F1E
:100EB7005582FF50090EBE00050DBD00010CC3EBA6
:100EC7009FF5F0EA9E42F0E99D42F0E89C45F0600C
:090ED70007CC4820E701B3EC222E
:100EE000ED33EC33600A047003BD8004ECB2E7FC20
:010EF00022DF
:1030F50033DA929E35B16011377FE5FE3921848937
:103105003AAEC3FF3C1D955B3D6358473E75FDF0E8
:103115003F3172183F800000C2D5020E42020E38C0
:10312500BD80FA50F3020E3FED33EC330460F17BC2
:103135003B7AAA79B8783F120C88ED33EC3392D5F7
:10314500247B5011A2D570DB500BED448024045034
:1031550004A2D580CEEFFBEEFAEDF9ECF8120DCC1A
:10316500EFF582F404FC120D98120B97C082903093
:10317500F57409120FA0ED33CC33D0F092D525F0BC
:0A318500A2D57001C313CC13FD2284
:10297B003E9248DA3ECCCCCD3F2AAAAB40000000B9
:10298B003F8000003F9837F03FB504F33FD744FC3E
:10299B003E3172173EB172173F0515913EDE5BD982
:1029AB00D2008002C200EDD2E7F8CD33EC330470D5
:1029BB000BBD800592D5020E42020E3840FBD3149C
:1029CB0060F2F5F07C3FEE7A00C39496C8948B408E
:1029DB00230AC89469C8941A401A0AC89468C89400
:1029EB001F40110AC8945AC89425400805F07A0074
:1029FB00CDC2E7CDC0F09001131212E2EA2323C03F
:102A0B00E0248BF582E43429F5831212A2120B9782
:102A1B00ECC0E0EDC0E0EEC0E0EFC0E0121286903B
:102A2B000113121296120B93D0E0FBD0E0FAD0E018
:102A3B00F9D0E0B2E7F8120EF49001131212E29003
:102A4B00297B7403120F91900113121296120C88AA
:102A5B00D0E0600F2497F582E43429F5831212A29B
:102A6B00120B979001131212E2D0E0C3947FFDE496
:102A7B009400FC120D937B187A727931783F120C0B
:102A8B0088900113121296120B9730000B7BD97A98
:092A9B005B79DE783E120C882202
:100EF100020E42EC5D046005E859047003020E38ED
:100F0100120E03580460F6EC4860F2EC7004FDFE2A
:100F1100FF22C860DB2481C85009C39860025006D3
:100F2100020E3F9850CAF582E9294B4A7005AB82FF
:100F3100020E2E75F0007C1A7880C3EF9BEE9AEDBD
:100F410099400DC3EF9BFFEE9AFEED99FDE842F04B
:100F5100DC23ACF0D0E0FFD0E0FED0E0FDAB82209E
:100F6100E7101BEB60BAEC2CFCEF33FFEE33FEED28
:100F710033FD020E1AE803F830E705C0F075F00002
:100F8100EF2FFFEE33FEED33FD40B830E7C280AA0C
:100F9100C0E0EFFBEEFAEDF9ECF8120C88D0E0F5C9
:100FA100F0EFFBEEFAEDF9ECF8121286A3A3A3A37E
:100FB100E8C0E0E9C0E0EAC0E0EBC0E0C0F0120C3C
:100FC100881212A2A3A3A3A3120B97D0F0D0E0FB27
:0D0FD100D0E0FAD0E0F9D0E0F8D5F0D4225D
:03000000023228A1
:0C322800787FE4F6D8FD75812002326F3B
:100FDE00BB010689828A83E0225002E722BBFE0211
:090FEE00E32289828A83E4932244
:100FF700BB010CE58229F582E5833AF583E02250AF
:1010070006E92582F8E622BBFE06E92582F8E222F8
:0D101700E58229F582E5833AF583E4932212
:10102400BB010689828A83F0225002F722BBFE01AB
:02103400F322A5
:10103600EF8DF0A4A8F0CF8CF0A428CE8DF0A42ECE
:02104600FE2288
:10104800BC000BBE0029EF8DF084FFADF022E4CC8C
:10105800F875F008EF2FFFEE33FEEC33FCEE9DEC55
:10106800984005FCEE9DFE0FD5F0E9E4CEFD22ED9B
:10107800F8F5F0EE8420D21CFEADF075F008EF2FE5
:10108800FFED33FD4007985006D5F0F222C398FDD6
:051098000FD5F0EA2273
:10109D00C2D5EC30E709B2D5E4C39DFDE49CFCEE6E
:1010AD0030E715B2D5E4C39FFFE49EFE121048C38E
:1010BD00E49DFDE49CFC800312104830D507C3E489
:0610CD009FFFE49EFE22DD
:1010D300C5F0F8A3E028F0C5F0F8E58215827002A8
:0610E3001583E038F02245
:1010E900BB0110E58229F582E5833AF583E0F5F045
:1010F900A3E0225009E92582F886F008E622BBFE22
:101109000AE92582F8E2F5F008E222E5832AF58367
:08111900E993F5F0A3E993222C
:10112100E88FF0A4CC8BF0A42CFCE98EF0A42CFC6D
:101131008AF0EDA42CFCEA8EF0A4CDA8F08BF0A4EB
:101141002DCC3825F0FDE98FF0A42CCD35F0FCEB4A
:101151008EF0A4FEA9F0EB8FF0A4CFC5F02ECD390F
:0F116100FEE43CFCEAA42DCE35F0FDE43CFC227C
:1011700075F008758200EF2FFFEE33FECD33CDCC36
:1011800033CCC58233C5829BED9AEC99E5829840B9
:101190000CF582EE9BFEED9AFDEC99FC0FD5F0D696
:1011A000E4CEFBE4CDFAE4CCF9A88222B800C1B9C0
:1011B0000059BA002DEC8BF084CFCECDFCE5F0CBFE
:1011C000F97818EF2FFFEE33FEED33FDEC33FCEB37
:1011D00033FB10D703994004EB99FB0FD8E5E4F9F2
:1011E000FA227818EF2FFFEE33FEED33FDEC33FCDF
:1011F000C933C910D7059BE99A4007EC9BFCE99AD3
:10120000F90FD8E0E4C9FAE4CCFB2275F010EF2F17
:10121000FFEE33FEED33FDCC33CCC833C810D70717
:101220009BEC9AE899400AED9BFDEC9AFCE899F852
:0E1230000FD5F0DAE4CDFBE4CCFAE4C8F922E5
:0E123E00C3E49FFFE49EFEE49DFDE49CFC22C1
:10124C00EB9FF5F0EA9E42F0E99D42F0EC6480C819
:06125C0064809845F022B9
:10126200EB9FF5F0EA9E42F0E99D42F0E89C45F0E2
:011272002259
:10127300E8600FECC313FCED13FDEE13FEEF13FF59
:03128300D8F1227D
:10128600E493FC740193FD740293FE740393FF22AE
:0C129600E0F8A3E0F9A3E0FAA3E0FB22DB
:1012A200E493F8740193F9740293FA740393FB22A2
:1012B200BB010DE58229F582E5833AF58302129698
:1012C2005007E92582F802131FBBFE07E92582F8C1
:1012D20002132CE58229F582E5833AF5830212A2F4
:0C12E200ECF0A3EDF0A3EEF0A3EFF0227F
:1012EE00A8828583F0D083D08212130512130512C3
:1012FE001305121305E473E493A3C583C5F0C583E8
:10130E00C8C582C8F0A3C583C5F0C583C8C582C849
:01131E0022AC
:0C3D1300EE30E707C3E49FFFE49EFE22B1
:103234000238D8E493A3F8E493A34003F68001F2A0
:1032440008DFF48029E493A3F85407240CC8C3339B
:10325400C4540F4420C8834004F456800146F6DF6A
:10326400E4800B0102040810204080903966E47E5B
:10327400019360BCA3FF543F30E509541FFEE4935F
:10328400A360010ECF54C025E060A840B8E493A326
:10329400FAE493A3F8E493A3C8C582C8CAC583CA51
:1032A400F0A3C8C582C8CAC583CADFE9DEE780BE09
:0139AA00001C
:0D131F00E6FB08E6F908E6FA08E6CBF8223E
:0D132C00E2FB08E2F908E2FA08E2CBF82241
:00000001FF
