:10350500E4900032F0A3F0A304F0A3F0E4A3F0A349
:0D35150022A3F0A37401F0FB7A00793222AA
:102BBC0090003374FCF0E4900032F07B017F011242
:102BCC002C247403F09000327401F0FBFF122C24BF
:102BDC007440F09000327401F0FB7A0079327F037C
:102BEC001219E59000337438122C0F7487122C0FC5
:102BFC0074FFF0E4900032F07B017A0079327F05AB
:032C0C000219E5C5
:102C0F00F09000327403F07B017A007932FF1219D1
:102C1F00E5900033227A0079321219E590003322C1
:10345700900032740AF0E4900038F0A304F0E4908E
:10346700003312350BF07B017A0079321225CD7FBC
:043477000102001E30
:1032090012350574F4F07448123516E4FF1212CB26
:1032190012350574ECF07478123516FF1212CBE4EE
:10322900900034F0A3F0A3F0A374F1F0A3745AF062
:0E323900E4A3F07B017A0079327F020212CB0F
:102FAA009000327460F090003C7401F074FF90005D
:102FBA0033F0A3F090004BE0FFA3E0900035CFF090
:102FCA00A3EFF0E4A3F090003D7404F0E490003F16
:102FDA00F090003804F0900042F0900040F0FB7A44
:072FEA00007932FF021D62B5
:102FF100122BBC90FE137438F0123457123209129E
:103001002FAAD2AF122A31E4FF1235227F011233E7
:10301100DF90004B74EAF0A37460F07B017A0079D1
:10302100497F0112359812330112357012330112A2
:0730310030C212154080FBC4
:100066000000000000000000002F00000000070054
:10007600070000147F147F1400242A7F2A120062CE
:10008600640813230036495522500000050300007A
:1000960000001C224100000041221C000014083E02
:1000A60008140008083E0808000000A060000008C8
:1000B600080808080000606000000020100804021C
:1000C600003E5149453E0000427F400000426151DA
:1000D6004946002141454B31001814127F10002774
:1000E60045454539003C4A49493000017109050337
:1000F60000364949493600064949291E0000363668
:1001060000000000563600000008142241000014CA
:1001160014141414000041221408000201510906A7
:1001260000324959513E007C1211127C007F494928
:100136004936003E41414122007F4141221C007F59
:1001460049494941007F09090901003E4149497A67
:10015600007F0808087F0000417F410000204041E1
:100166003F01007F08142241007F40404040007F4D
:10017600020C027F007F0408107F003E4141413E91
:10018600007F09090906003E4151215E007F0919D9
:1001960029460046494949310001017F0101003FD6
:1001A6004040403F001F2040201F003F4038403F56
:1001B60000631408146300070870080700615149BA
:1001C600454300007F41410000552A552A5500004D
:1001D60041417F00000402010204004040404040CB
:1001E600000001020400002054545478007F484463
:1001F600443800384444442000384444487F00389A
:100206005454541800087E0901020018A4A4A47CC2
:10021600007F080404780000447D4000004080848C
:100226007D00007F102844000000417F4000007CD4
:1002360004180478007C08040478003844444438E0
:1002460000FC242424180018242418FC007C08042C
:10025600040800485454542000043F444020003C05
:100266004040207C001C2040201C003C4030403C8C
:10027600004428102844001CA0A0A07C004464541C
:100286004C44141414141414000000000000000060
:100296000000000000000000000000F80000000060
:1002A600000000333000000000100C06100C0600A1
:1002B600000000000000000040C07840C078400008
:1002C600043F04043F040400007088FC083000006A
:1002D600001820FF211E0000F008F000E0180000C2
:1002E60000211C031E211E0000F00888700000007B
:1002F6001E2123241927211010160E0000000000CD
:100306000000000000000000000000E018040200E9
:10031600000000071820400000020418E00000005A
:100326000040201807000000404080F08040400058
:100336000202010F01020200000000F000000000AE
:100346000101011F01010100000000000000000082
:1003560080B07000000000000000000000000000F7
:100366000001010101010101000000000000000080
:10037600003030000000000000000000806018041B
:10038600006018060100000000E010080810E000F8
:10039600000F102020100F00001010F800000000C1
:1003A6000020203F20200000007008080888700008
:1003B6000030282422213000003008888848300088
:1003C6000018202020110E000000C02010F80000A8
:1003D60000070424243F240000F808888808080041
:1003E6000019212020110E0000E010888818000056
:1003F600000F112020110E0000380808C838080028
:100406000000003F000000000070880808887000A7
:10041600001C222121221C0000E010080810E00028
:100426000000312222110F00000000C0C0000000B1
:1004360000000030300000000000008000000000D6
:1004460000008060000000000000804020100800CE
:100456000001020408102000404040404040400097
:100466000404040404040400000810204080000072
:100476000020100804020100007048080808F00077
:100486000000003036010000C030C828E810E00047
:100496000718272423140B000000C038E0000000D2
:1004A600203C23020227382008F88888887000003C
:1004B600203F202020110E00C03008080808380010
:1004C600071820202010080008F808080810E00087
:1004D600203F202020100F0008F88888E808100028
:1004E600203F20202320180008F88888E8081000FC
:1004F600203F200003000000C03008080838000034
:1005060007182020221E020008F808000008F80834
:10051600203F210101213F20000808F808080000BB
:100526000020203F2020000000000808F8080800EE
:10053600C08080807F00000008F888C02818080066
:10054600203F20012638200008F80800000000009F
:10055600203F20202020300008F8F800F8F8080096
:10056600203F003F003F200008F830C00008F80890
:10057600203F200007183F00E01008080810E000A0
:100586000F10202020100F0008F808080808F000B7
:10059600203F210101010000E01008080810E000DA
:1005A6000F18242438504F0008F88888888870006F
:1005B600203F2000030C302000708808080838000F
:1005C6000038202121221C00180808F80808180005
:1005D6000000203F2000000008F808000008F80886
:1005E600001F202020201F000878880000C8380837
:1005F600000007380E010000F80800F80008F800AF
:10060600033C0700073C0300081868808068180848
:1006160020302C03032C30200838C800C8380800C6
:100626000000203F2000000010080808C838080015
:100636002038262120201800000000FE02020200B9
:100646000000007F40404000000C30C00000000069
:10065600000000010638C00000020202FE00000091
:10066600004040407F000000000004020202040037
:100676000000000000000000000000000000000074
:10068600808080808080808000020204000000005C
:100696000000000000000000000080808080000054
:1006A6000019242222223F2008F800808000000042
:1006B600003F112020110E00000000808080000005
:1006C600000E112020201100000000808088F80014
:1006D600000E112020103F20000080808080000046
:1006E600001F222222221300008080F088888818AA
:1006F6000020203F202000000000808080808000B5
:10070600006B94949493600008F800808080000049
:10071600203F210000203F20008098980000000024
:100726000020203F20200000000000809898000054
:1007360000C08080807F000008F800008080800074
:10074600203F24022D302000000808F80000000099
:100756000020203F20200000808080808080800054
:10076600203F20003F20003F8080008080800000E6
:10077600203F210000203F20000080808080000074
:10078600001F202020201F008080008080000000A5
:1007960080FFA12020110E000000008080808000D4
:1007A600000E112020A0FF808080800080808000C5
:1007B60020203F21200001000000808080808000F2
:1007C6000033242424241900008080E08080000067
:1007D6000000001F202000008080000000808000B4
:1007E600001F202020103F20808080000080808015
:1007F60000010E30080601008080008000808080A5
:100806000F300C030C300F000080800080808000C9
:100816000020312E0E3120008080800000808080F4
:1008260080818E70180601000080808080808000A4
:100836000021302C2221300000000000807C0202C2
:1008460000000000003F404000000000FF000000E4
:1008560000000000FF0000000002027C8000000093
:100866000040403F000000000006010102020404AF
:1008760000000000000000000000C0201010102042
:10088600C00000007F800000000000807F000000A4
:100896000102040404020100000000002020F00010
:1008A600000000000000000000FF00000000000043
:1008B6000000040407040400000000C0201010100B
:1008C600101020C000000100804020100804030022
:1008D600000605040404040404070000E0101010D8
:1008E600101020C00000008000000808081413E063
:1008F60000000304040404040402010000000000D4
:10090600008060F00000000060504C424140FF4013
:10091600400000000000000404070404000000F08A
:10092600101010101010100000800F0402020202B6
:1009360004F8000003040404040404030000000097
:10094600C0201010101060000000FF080402020210
:100956000204F8000000010204040404020100007D
:100966006010101010109070100000000000E018C9
:100976000601000000000000000700000000000063
:1009860000C020101010101020C00000E1120C084A
:1009960008080C12E1000001020404040404020128
:1009A6000000C02010101010204080000007081022
:1009B60010101008847F00000003040404040201E0
:1009C6000000020502F804020202040E8000000084
:1009D6000000010202020201000020222222E23E61
:1009E600E22222222000080402010000070808086B
:1009F6000E008888FF487057758575577000000887
:100A06000F000905030F030509002010FC03080762
:100A1600FC242424040000000F0000000F01010143
:100A2600010000FC24242625242424FC0000000FB9
:100A3600090909090909090F000010D232921000AC
:100A460008FF0808F8000302020203080601080866
:100A560007002010FC03088868FF6888080000006B
:100A66000F000201000F00010200FF4949FF00FFCD
:100A76004949F9494F0007020207000F0400030421
:100A86000E00FE2222FE0008488808FF0800070222
:100A9600020700000009080F000000F902F84949A2
:100AA6004949F901FF00000F0003020202020B0888
:100AB6000F001011F20050CF41414FD0100000003E
:100AC600070208080502050808001017D555577DC6
:100AD6005755D517100008080F08080E08080F0804
:100AE600080000F8888888FF888888F800000001D8
:100AF6000000000F00000001000000129490909F7B
:100B0600909094F200000004040404040404040F0A
:100B1600000004F4555654F404E605F40400000FEE
:100B26000101090F0003080F0000342CF7A4E8A404
:100B3600EA09CA04E80001010F000F020F000308CA
:100B46000F0000000181720C708000000000080494
:100B560002010000000102040800FC242424FF24F2
:100B66002424FC0000000301010107090909090802
:100B76000E0000FE02424242FA42424202000807CA
:0A0B8600080808080F08090A080013
:102D0C00E4FD12334FE4FD22E4FD12334F7F1FE448
:102D1C00FD12334FE4FD22900045E0FEA3E0FF22BC
:102D2C00E4FD12334FE4FD22E0FCA3E0A3FDE0FE42
:102D3C00A3E0FF22E4FD12334FE422A4FF90003302
:102D4C00E02FFFA3E0FD221235FAD2931235FAC21E
:102D5C009322E0FD7C00121048ED4C22EFF0A3ED25
:032D6C00F0A322AF
:10352200900032EFF07006FD7FA612334F9000320A
:0C353200E064017006FD7FA712334F22F9
:1033DF00900032EFF0700DFD7FC812334FE4FD7F88
:1033EF00A112334F900032E06401700DFD7FC012C7
:0A33FF00334FE4FD7FA012334F228C
:0835FA007F01AE071FEE70FA1D
:0136020022A5
:0F35AA00D294D2931235FAC2941235FAC29322F8
:0A35F000C294D2931235FAD294224D
:08000300D294122D530235FACC
:02343200AD07E4
:10343400E4FCECC39408748094805016C293ED307D
:10344400E704D2948002C294122D53ED25E0FD0CC2
:0234540080E016
:013456002253
:10333E00F583E5822FF582E5833EF583E493FF7DE9
:01334E00017D
:10334F00AB05AA071235AA7F78123432120003EBAD
:10335F0060047F408002E4FF123432120003AF0298
:09336F001234321200030235F0A1
:07340900E0FFA3E0FD04F069
:10341000A907ED24B0FFE4FD12334FE954F0C45482
:103420000F4410FFE4FD12334FE9540FFFE4FD0297
:02343000334F18
:10330100E4F9E9C39404748094805030E924B0FF57
:10331100122D0CFF12334F7F10122D40900032F00E
:10332100900032E0C3948074809480500C7D01E45D
:0C333100FF12334FE004F080E70980C673
:01333D00226D
:08222B0090003FEFF0A3EDF07D
:10223300E4900043F0900042E0FFC313FD9000449C
:10224300F0E4A3F0A3F0EF64087008A3F0A374060E
:10225300F08031900042E0FF131313541FF5827591
:102263008300EF54077E0060047F0180027F00EF4C
:102273002582FFEE3583FE7C00121036900047EE78
:10228300F0A3EFF0EB24E0900043F090003FE0FF79
:10229300A3E0FD123410E4900045F0A3F090004752
:1022A300E0FCA3E0FD122D23C39DEE9C507A900029
:1022B30044122D5E700E900042E0640860069000A8
:1022C3003F123409900042E0F964087015122D237F
:1022D300900043E075F006A42466F582E5F034002F
:1022E3008032E964107015122D23900043E075F0DD
:1022F30010A4248EF582E5F034028018E964167088
:1023030027122D23900043E075F021A4246EF5825B
:10231300E5F0340612333E900046E004F070069078
:082323000045E004F00222A0D5
:01232B00228F
:0332470090003FB5
:10324A00122D6812129A00000001900040E0FF144B
:10325A00F0EF6020A3E0F8A3E0F9A3E0FAA3E0FB13
:10326A0090003FE0FFE4FCFDFE12112190004112A4
:0A327A00128E80D6900041122D3410
:013284002227
:08250500900033EFF0A3EDF0AC
:10250D00E490003DF0A3F090003AE064087006906E
:10251D00003D7402F0E490003BF0900039E0FF9034
:10252D00003BE0FEC39F40030225CCC3EF9E14FD8C
:10253D007F0A123247A804A905AA06AB07900035F9
:10254D00122D341211ACE47B0AFAF9F81211AC9089
:10255D00003CEBF090003EE07034900039E014FF49
:10256D0090003BE0FEC39F5025A3E0701B90003A06
:10257D00E0FCC313FF90003DE02F8EF0122D47902D
:10258D000042ECF07B20802B90003E7401F0900017
:10259D003AE0FEC313FF90003DE02FFF90003BE0BB
:1025AD00FDEF8DF0122D4790003CE02430FB9000A4
:0F25BD0042EEF012222B90003BE004F0022527A3
:0125CC0022EC
:0E2C9E00900033122D68EBF0A3EAF0A3E9F0EA
:102CAC00E4900039F0900035E0FBA3E0FAA3E0F9E2
:102CBC00900039E0F582758300120FF760419000A7
:102CCC0033E0FFA3E0FD900039E0FE04F08E827546
:102CDC008300120FF7FB900038E0900042F01222B4
:102CEC002B900038E0FF64087009900033E0240654
:0F2CFC00F080B2EFC313FF900033E02FF080A6FB
:012D0B0022A5
:08291300900032122D68EBF078
:10291B00A3E0FF131313541FFD7C00EF54077E003D
:10292B0060047F0180027F00EF2DFFEE3CFE9000E4
:10293B0035E0FD7C00121036900038EEF0A3EFF07E
:10294B00E4900036F0A3F0900038E0FCA3E0900098
:10295B0036122D39C39DEE9C503F900035122D5EE3
:10296B007006900032123409900035E0640C702927
:10297B00A3E0FEA3E0FF900034E075F018A424C898
:10298B00F582E5F0340912333E900037E004F07025
:09299B00B6900036E004F080AEB5
:0129A4002210
:102A31007FC87E001235597FAE122D0CFF12334F25
:102A41007F10122D0CFF12334F7FB0122D1B7F818F
:102A510012334F7FFF122D2C7FA112334FE4FD7FE4
:102A6100A612334F7FA8122D147FC812334F7FD384
:102A7100122D2CFF12334F7FD5122D40FD7F801276
:102A8100334F7FD9122D147FDA12334FE4FDFF1239
:102A9100334FE4FD7FDB12334FE4FD7F4012334FB0
:102AA100E4FD7F8D12334FE4FD7F1412334F123357
:082AB10001E4FD7FAF02334F89
:0D000E00A3F0A3F0A374F1F0A3745AF02244
:033285002002180C
:103288009000387401F0E412000EA37401F0FB7A88
:083298000079367F020212CB1F
:0332A00030021FDA
:1032A300E4900038F012000EE4A3F07B017A007979
:0F32B300367F021212CB7F017E00123559C2B74F
:0132C20022E9
:10353E00E0FEA3E0FFD3940AEE940022D3EF94F4BE
:0B354E00EE940122E4F0A3F0C2022280
:102EC8009000331235521232852096177F017E000A
:102ED800123559900034E004F070EE900033E004AD
:102EE800F080E6D20212328590003312353E400857
:102EF80012354B50037F0122D3900034E094F490B4
:0C2F08000033E0940140037F02227F00B0
:012F1400229A
:102E25009000331235521232852097177F017E00AC
:102E3500123559900034E004F070EE900033E00450
:102E4500F080E6D20212328590003312353E400DF5
:102E550012354B500890008D7401F0801212354ADE
:102E6500400890008D7402F08005E490008DF0908C
:042E7500008DE0FFED
:012E79002236
:102DCF00E4900033F0A3F0C2021232852095177FF2
:102DDF00017E00123559900034E004F070EE90003F
:102DEF0033E004F080E6D2021232859000331235C0
:102DFF003E400B12354B5006A37401F08012123572
:102E0F004A40089000357402F08005E4900035F0D8
:052E1F00900035E0FF0A
:012E2400228B
:052F620042008B00009D
:0936030090008BE0FEA3E0FF2221
:1030C20012360312347B900032EFF064056014EF85
:1030D2006409600FEF640C600AEF640F6005EF642F
:1030E200147007900032E0FF80151236037D057CD4
:1030F20000122E7A12360312347B900032EFF01255
:02310200310595
:0131040022A8
:1033B200C2AF12360312347B900032EFF012318B1F
:1033C200900032E06F601312318BEF600D12318B7F
:0C33D200EFFD7C00123603122E7AD2AF01
:0133DE0022CC
:10310500EFFD7C0064057007D2B3C2B5C2B422EDF1
:1031150064094C7007C2B5C2B4C2B322ED640C4C4D
:103125007007C2B4C2B3D2B522ED640F4C7007C2AA
:10313500B3D2B5D2B422ED64144C7006C2B3D2B486
:03314500C2B522EE
:10318B0020B30930B40620B5037F142220B30930D5
:10319B00B40630B5037F0F2220B30920B40630B537
:1031AB00037F0C2220B30920B40620B5037F09222C
:0E31BB0030B30920B40620B5037F0522E4FFDF
:0131C90022E3
:10337800537061726B5F543132002020003E3E0072
:103388004565656F7200706F7765720025003A00B9
:103398006D560056005049443A004B703A00546943
:0A33A8003A0054643A004D696E00CB
:102F670041007C0045007405090C0F1441007900ED
:102694007A3379827BFF9000387410F022E0FEA335
:1026A400E0FFE4FCFD90003512128E900039227A8E
:1026B4003379947BFF9000387408F02290007FE017
:1026C400FEA3E0FF7C007D3C121048D3900084E020
:1026D4009F900083E09E227402F0A37410F07D02A8
:1026E4002290006AE0FEA3E0FFEE3395E0FDFC22B9
:1026F40090007CE004F022900035740CF0229000ED
:1027040079E02474F582E43400F583E0FF22740355
:10271400F0A37410F0E4FD2290006CE064809480D7
:1027240022E4F0A37464F02290007BE06401229020
:0627340000327403F022E4
:103570007A3379781226987D017F08122C9E7FE895
:053580007E0302355935
:10242C00900032E004F0122E25EF64017010900041
:10243C0065E0240AF0900064E03400F08016122D60
:10244C00CFEF6401700E900065E024F6F09000640C
:10245C00E034FFF09000641226A17403F0A374160C
:10246C00F0E4FD7F05122505900059E0FEA3E0FF86
:10247C00C3900065E09FFF900064E09EFE1235E47F
:10248C007C007D64121036900064E0FCA3E0FD1229
:10249C0010481226A67403F0A37408F07D027F6422
:1024AC00122505900032E0640A702590004BE0FE86
:1024BC00A3E0FF7C027D8F1210481226A67403F055
:1024CC00A37408F0E4FD7F64122505E4900032F05B
:1024DC00D3900065E094C2900064E09401400774CE
:1024EC0001F0A374C2F0C3900065E09464900064A2
:0824FC00E094005003122725B3
:0125040022B4
:102B3D00122E25EF64017012900079E0C394057494
:102B4D008094805029E004F08024122DCFEF640191
:102B5D00703E900079E0FF7E00D3940074809480E5
:102B6D00400CEF9405748094805003E014F012270C
:102B7D0002123105122702E4FCFDFE1226A91226CF
:102B8D00DB7F461225051233B27FC87E0012355900
:102B9D00900079E0D39404748094804002E4F09026
:0F2BAD0000601226A174051227147F4602250529
:10179600E4900032F01226E51226A91227127F697C
:1017A60012250590006C1226E81226A91226DB7F68
:1017B6002D1225059000681226E81226A91226DBAE
:1017C6007F6E1225051226947D027F41122C9E12F1
:1017D60026947D02E4FF1219D312269A1219DD907F
:1017E6000032E0707B1219AF701090006BE004F0CD
:1017F600700690006AE004F0802012272C7010908A
:10180600006BE024FFF090006AE034FFF0800BEFFD
:1018160064024E700590003204F01226E51226A9E5
:101826001227127F691219C970061226F41227337D
:10183600D390006BE0949690006AE06480948040B8
:1018460006E4F0A37496F0C390006BE09401900058
:101856006AE0648094805087E4F0A304F00217E500
:101866001226947D027F411219D312269A7D02E434
:10187600FF122C9E1226941219DD900032E06401AC
:1018860070681219AF701090006DE004F070069049
:10189600006CE004F0802112272C701090006DE09F
:1018A60024FFF090006CE034FFF0800CEF64024EF1
:1018B60070069000327402F090006C1226A1122677
:1018C600DB7F2D1219C970061226F4122733D39026
:1018D600006DE0946412271C4003122725C31227CB
:1018E6001C5097E4F0A3F00218807BFF7A337985C9
:1018F60012269A7D027F41122C9E1226947D02E4C6
:10190600FF122C9E122694E4FD7F41122C9E90001D
:1019160032E0640260030219AE122E2590007AEFBF
:10192600F0122DCF90007BEFF090007AE0FF7E0062
:1019360064017010900069E004F07006900068E0A1
:1019460004F0801F12272C7010900069E024FFF02D
:10195600900068E034FFF0800AEF64024E70049055
:101966000032F09000681226A11226DB7F6E122547
:1019760005122EC8EF640170061226F4122733D31F
:10198600900069E09464900068E06480948040036D
:10199600122725C3900068E06480948040030219F2
:0819A60014E4F0A3F00219148F
:1019AE0022122E2590007AEFF0122DCF90007BEFB1
:1019BE00F090007AE0FF7E00640122122505122EBF
:1019CE00C8EF640122122C9E7BFF7A33798522E4C4
:0719DE00FD7F41122C9E2247
:102D6F009000831226A11226DB7F28122505122E32
:102D7F0025EF64017010900084E004F0701E900045
:102D8F0083E004F08016122DCFEF6401700E9000D7
:102D9F0084E024FFF0900083E034FFF0C3900084C0
:102DAF00E09401900083E094005005E4F0A304F058
:102DBF0090007F1226A174031226DDE4FF02250581
:101540001233011226FBE4FB7D017F281229137A56
:101550003379881226B77D027F46122C9E7BFF7A54
:1015600033798E1226B9E4FD7F46122C9E1226B3E3
:101570007D027F78122C9E1226B3E4FD7F78122C18
:101580009E90007CE0701512242C12177F700312BD
:1015900026F41226C050EA12307E80E51233019004
:0A15A000007CE064016003021654B1
:1015AA00C2011226FB7B0D12175A7B0E1217327BD1
:1015BA00111217407B12E4FD1217867A33799612BC
:1015CA00269AE4FD7F37122C9E1226FB7B0F7D02A2
:1015DA00E4FF1229131226FB7B107F0E1217737B6E
:1015EA00117F1C1217737B127D021217867A3379C8
:1015FA009612269A7D027F37122C9E200114D20160
:10160A0012318BE4FCFDFE1226A91226DB7F46125C
:10161A0025057BFF7A33799812269A7F6E12178EE8
:10162A007A33799B12269A7D027F6E122C9E122B98
:10163A003D12177F70031226F41233B21226C040ED
:07164A000302159F12307E20
:1016510002159F12330190007CE06402704C7BFF05
:101661007A33799D12269A7F0A12178E7A3379A2DC
:1016710012269AE4FD7F55122C9E7BFF7A3379A6C0
:1016810012269A7D027F14122C9E7BFF7A3379AA4F
:1016910012269A7D027F55122C9E121796122EC881
:1016A100EF640170B11226F480AC12330190007C1A
:1016B100E06403706C1226FB7B0A12175A7B0B1233
:1016C10017327B011217407B027F2A12174E7B03D0
:1016D1007F3812174E7B047F461217677B057F54B4
:1016E1001217677B06E4FD7F621229131226FB7B2A
:1016F10007E4FD7F701229137BFF7A3379AE12263E
:101701009A7D027F46122C9E122D6F122EC8EF6415
:101711000170031226F41226C0509212307E021676
:10172100AE90007CE0D39403748094804002E4F096
:1017310022E4FD7F0E122913900035740CF022E48F
:10174100FD7F1C122913900035740CF022E4FD1268
:101751002913900035740CF022E4FDFF1229139037
:101761000035740CF022E4FD122913900035740C3D
:10177100F0227D02122913900035740CF022122EF2
:10178100C8EF6401227F2A1229137BFF22E4FD1294
:051791002C9E7BFF22ED
:103148001233011226FBE4FB7D017F281229137B31
:10315800FF7A3379881226B97D027F46122C9E7B2E
:10316800FF7A33798E1226B9E4FD7F46122C9E121F
:1031780026B37D027F78122C9E1226B3E4FD7F7859
:03318800022C9E78
:1025CD00900001120FF7FFE5DE54F04FF5DE90009D
:1025DD0002120FF76401700543BC80800353BC7F6A
:1025ED00900003120FF76401700543DE2080035342
:1025FD00DEDF900005120FF764017004D2AD80028A
:10260D00C2AD900004120FF7FF7E00D394037480C7
:10261D0094805072EF700553B7DFC2BDEF64014E69
:10262D00700553B7DFD2BDEF64024E700543B7207E
:10263D00C2BDEF64034E700543B720D2BD120FDE4D
:10264D00D3941F74809480503D900006120FF7FFB5
:10265D00D3940174809480502D900007120FF7FED3
:10266D00D3940374809480501D43BA80EEC43354C8
:10267D00E0FEEFC433333354804EFF120FDE4F9024
:07268D00FEA8F053BA7F2202
:0D001E00EF6401700443BC802253BC7F22BC
:102AB900EFD3940F7480948040028073E4F5BDF5E0
:102AC900BEE5BC54F044404FF5BC000000000000D6
:102AD90000000000E4FDEDC394FA74809480504F27
:102AE900E5BC30E54753BCDFE5DEAFBD30E50DEFB2
:102AF900FEACBEECFBEBFF9000308022900030E48E
:102B0900F0A3EFF0E5BEC4540FFBE0C4F8540FC8BE
:102B190068FF900030E0C454F048FEEF4BFFEEF040
:102B2900A3EFF0900030E0FEA3E0FF220D80A77E26
:032B3900107F000A
:012B3C002276
:03002B0002361288
:0436120053BCDF3294
:103559007DB87C0BED1D70011C144C70F7EF1F70CA
:06356900011E144E70EA81
:01356F002239
:10349F00AD07AC0675C78075F51E22740129F9E4D6
:1034AF003AFA74FFF5F01210D345F022ECF5C3AFE2
:0434BF00058FC4228F
:0E35C800E4F5C7F5C5F5C675C3FF75C4FF224F
:10358500A2AF92D5C2AF75C65A75C6A50000A2D521
:0335950092AF22D0
:1034C30012349F75C5011234BB123585E5C2121043
:1034D300240DBD00010C9000401234AA70E802359F
:0134E300C820
:0F35B90012349F75C5031234BB1235850235C815
:1034E40012349F75C5021234BB120FDEF5C21235B9
:1034F400850DBD00010C90003E1234AA70E802351F
:01350400C8FE
:102E7A00900035ECF0A3EDF0900033EEF0A3EFF004
:102E8A0012347B900035E0FCA3E0FD6F7002EC6E1B
:102E9A00602BEDA3F0ECA3F0900033E0FEA3E0FF7B
:102EAA001235B9900033E0FEA3E0FF7B017A007986
:0D2EBA003790003EE4F0A37402F01234E4FF
:012EC70022E8
:10347B007B017A007939900040E4F0A37402F012DA
:10348B0034C390003AE0FE900039E07C002400FF4A
:03349B00EC3EFE06
:01349E00220B
:06360C00900001020FF71F
:1019E500EFD394077480948040037F0122120FDEA9
:1019F500FED394037480948040037F0222EF7038F5
:101A0500EE700812360CF452935294120FDE6401F4
:101A1500700812360C4293F45294120FDEFE6402E3
:101A2500700712360C42934294EE6403700A123624
:101A35000CFEF45293EE4294EF6401703A120FDEFD
:101A4500FE700812360CF452915292EE6401700841
:101A550012360C4291F45292120FDE640270071294
:101A6500360C42914292120FDE6403700A12360C54
:101A7500FEF45291EE4292EF6402703A120FDEFECE
:101A8500700812360CF452955296EE6401700812E5
:101A9500360C4295F45296120FDE64027007123628
:101AA5000C42954296120FDE6403700A12360CFE44
:101AB500F45295EE4296EF6403703A120FDEFE7013
:101AC5000812360CF452B152B2EE640170081236A7
:101AD5000C42B1F452B2120FDE6402700712360CDA
:101AE50042B142B2120FDE6403700A12360CFEF4E4
:101AF50052B1EE42B2EF6404703A120FDEFE700886
:101B050012360CF452B352B4EE6401700812360C5E
:101B150042B3F452B4120FDE6402700712360C425F
:101B2500B342B4120FDE6403700A12360CFEF4528F
:101B3500B3EE42B4EF6405703A120FDEFE70081280
:101B4500360CF452C952CAEE6401700812360C42C2
:101B5500C9F452CA120FDE6402700712360C42C96C
:101B650042CA120FDE6403700A12360CFEF452C923
:101B7500EE42CAEF6406703A120FDEFE70081236A6
:101B85000CF452CB52CCEE6401700812360C42CBE9
:101B9500F452CC120FDE6402700712360C42CB42AF
:101BA500CC120FDE6403700A12360CFEF452CBEE33
:101BB50042CCEF6407703D120FDEFF7E0070081205
:101BC500360CF452E152E2EF64014E700812360C05
:101BD50042E1F452E2120FDE6402700712360C4243
:101BE500E142E2120FDE6403700A12360CFFF45272
:071BF500E1EF42E27F002254
:0E35D6001210E990FED7FFE5F0F0A3EFF0220F
:101D6200EF64016003021EB243BA8090000A120FB0
:101D7200F7FF7E00D3940374809480502DEF700699
:101D820053EEF753DFF7EF64014E700653EEF7435D
:101D9200DF08EF64024E700643EE0853DFF7EF648C
:101DA200034E700643EE0843DF0890FECCE4F0A336
:101DB200F0120FDEFF90FEC9E0548F4FF090000842
:101DC200120FF7640190FEC87006E04408F0800428
:101DD200E054F7F0900009120FF7640190FEC8700A
:101DE20006E04404F08004E054FBF0900006120F79
:101DF200F7640190FECC7006E04410F08004E054D9
:101E0200EFF0900007120FF7640190FECC7006E02D
:101E12004440F08004E054BFF09000011210E990B9
:101E2200FED21235DC9000031235D690000C120F50
:101E3200F790FEC17007E054FEFFF08005E0440118
:101E4200FFF090FEC1EFF090000D120FF790FEB27E
:101E5200F090000B120FF790FEB1F0900005120FF8
:101E6200F790FEDEF090000F120FF7640190FEDD96
:101E72007006E04410F08004E054EFF0900010127D
:101E82000FF7640190FEDD7006E04480F08004E00C
:101E9200547FF090000E120FF7640190FEC070069E
:101EA200E04401F08004E054FEF053BA7F7F002248
:031EB2007F02228A
:1035980043BA80EF640170069000021235D653BA20
:0235A8007F2280
:092F7700410086004200870000C1
:10303800E58954CF4EF589900003020FF7900005FB
:103048000210E9900002120FF764012290000412A6
:103058000FF7640122900007120FF7640122900015
:1030680001120FF7D3FE94037480948022FED39448
:0630780002748094802226
:03000B00021FDEF3
:101FDE00C0E0C0F0C083C082C0D075D000C000C0C9
:0D1FEE0001C002C003C004C005C006C0074A
:101FFB003003030220D0900086E004F0E0640A7006
:10200B001D1220F9900081EEF0A3EFF07F0E122A43
:10201B00B97C007D0312103690005E0220D990002F
:10202B0086E06452700990004BF0A3F00220C3903D
:10203B000086E0645560030220DE7F01122AB97C22
:10204B00007D21121036900060EEF0A3EFF09000AF
:10205B0086E4F07F0A12232C900062EEF0A3EFF0DF
:10206B00900059EEF0A3EFF0122106900062EEF013
:10207B00A3EFF0D394C2EE9401501D900062E0FEEA
:10208B00A3E0FF900064E0FCA3E0FD12273A900070
:10209B004BEEF0A3EFF0800790004BE4F0A3F0C3FE
:1020AB00900063E094B4900062E09400500A9000BA
:1020BB004B74E6F0A37466F07B017A0079497F01DB
:1020CB00123598800E30030B1220F9900081EEF040
:0320DB00A3EFF080
:1020DE00D007D006D005D004D003D002D001D00056
:1020EE00D0D0D082D083D0F0D0E0327F0A122AB97D
:0820FE007C007D031210362264
:03001B000227DBDE
:1027DB00C0E0C0F0C083C082C0D075D000C000C0C4
:0D27EB0001C002C003C004C005C006C00745
:1027F800900088E004F07006900087E004F09000F4
:1028080087E0B4011AA3E0B4F415900080E004F066
:10281800700690007FE004F0900087E4F0A3F0C316
:10282800900082E0941C900081E0940040079000A2
:102838007FE4F0A3F090007FE0FEA3E0FFE4FCFD5E
:102848007BFF7AFFF9F8D312124C500A90007F747C
:06285800EAF0A37460F039
:10285E00D007D006D005D004D003D002D001D000CE
:0B286E00D0D0D082D083D0F0D0E03278
:0300630002006038
:03006000B2B73202
:1012CB00AD07EDD394047480948040037F0122ED2D
:1012DB006003021372C28C12304B7004D2A98002CD
:1012EB00C2A912306640037F0222EEFF7E0070051A
:1012FB0053B7FDC2B9EF64014E700553B7FDD2B9B8
:10130B00EF64024E700543B702C2B9EF64034E702F
:10131B000543B702D2B9120FDEC312306D40037F03
:10132B000222123038FF7E0064017003538E7FEF70
:10133B004E7003438E80EF64024E70054389048028
:10134B00035389FB1230547005438F018003538F75
:10135B00FE123045E5F0F58C123045F58A12305D02
:10136B007002D28C7F0022ED6401600302140DC267
:10137B008E12304B7004D2AB8002C2AB123066407F
:10138B00037F0222EEFF7E00700553B7F7C2BBEF5F
:10139B0064014E700553B7F7D2BBEF64024E700574
:1013AB0043B708C2BBEF64034E700543B708D2BB0B
:1013BB00120FDEFEC312306E40037F022212303852
:1013CB00FF7E0064017003538EBFEF4E7003438E9C
:1013DB0040EF64024E700543894080035389BF126E
:1013EB0030547005438F028003538FFD123045E557
:1013FB00F0F58D123045F58B12305D7002D28E7F79
:10140B000022ED6402705F538EEF12304B70054378
:10141B00AF04800353AFFB12303F12307540037F94
:10142B000222EEFF7E0064017003538EFBEF4E70C1
:10143B0003438E04EF64024E7005438E0880035302
:10144B008EF71230547005438F048003538FFB12B9
:10145B003045E5F0F5D6123045F5D712305D700307
:10146B00438E107F0022ED6403705F53D1F712306F
:10147B004B700543AF20800353AFDF12303F123068
:10148B007540037F0222EEFF7E006401700353D18F
:10149B00FDEF4E700343D102EF64024E700543D152
:1014AB0004800353D1FB123054700543D1018003E8
:1014BB0053D1FE123045E5F0F5D4123045F5D51277
:1014CB00305D700343D1087F0022ED6404706353D9
:1014DB00D17F12304B700543AF40800353AFBF1227
:1014EB00303FFD7C0012307640037F0222ED640119
:1014FB004C700353D1DF12303F700343D1201230B5
:10150B003F6402700543D140800353D1BF12305466
:10151B00700543D110800353D1EF123045FDACF071
:10152B00ECF5D2AF058FD312305D700343D1807FC2
:05153B0000227F0222E6
:102F8000C10342007F00004200830005410085002C
:10002E007C007D6490007DE0FEA3E0FF021048C3DB
:10003E00900082E0941C900081E094002274FFF006
:10004E00A3F090004BE0FFA3E022FF900035740C6C
:02005E00F0228E
:1031CA009000327460F090003C7401F09000331269
:1031DA00004B900035CFF0A3EFF0E4A3F090003D50
:1031EA007404F0E490003FF0900038F0900042F050
:0F31FA00900040F07B017A0079327F01021D6264
:1032C3009000327460F090003C7401F0900033126F
:1032D300004B900035CFF0A3EFF0E4A3F090003D56
:1032E3007404F0E490003FF090003804F090004242
:0E32F300F0900040F0FB7A007932FF021D627D
:102C2F0090007EE0240AF090007DE03400F0120066
:102C3F003D4007E490007FF0A3F07C037DE8120095
:102C4F0032ED4C702F12330112002E1200597B06F9
:102C5F007D0112291312002EEF240E1200587B074C
:102C6F007D0112291312002EEF241C120058FB7D38
:102C7F00011229137F0A7E00123559C390007EE09E
:0E2C8F0094E190007DE0942E4004E4F0A3F068
:012C9D002214
:10307E001233011231CAD203C292122C2F12003D0A
:10308E004007E490007FF0A3F090007FE0FEA3E005
:10309E00FF7C007D3C121048D3900084E09F90008E
:1030AE0083E09E40D51232C3900085E0700312314A
:0430BE0048C20322DF
:102F900042006A009642006C00054200720008423E
:092FA00000680002420064012CEB
:102F150090002DE025E02401F582E43400F58322BC
:102F2500900000E0FCA3E0FDE4020D9390006AE050
:102F3500FCA3E0FD021036C3900067E09FFF900000
:102F450066E09EFE22F090002DE004F022FDE0FEFA
:0D2F5500A3E0FF02109DE0FCA3E0FDC322FD
:10273A00C3EF9DFFEE9C900066F0FAA3EFF0FB90CA
:10274A00006CE0FCA3E0900072122F52122F31AD00
:10275A0003AC02121036AA06AB0790006EE0FEA385
:10276A00E0FF122F3C122F31EF2BFBEE3AFAC00298
:10277A00C003900072E0FCA3E0900068122F52A3FD
:10278A00122F34AA06AB0790006FE025E0FF9000F5
:10279A006EE033FE122F3C900071E02FFD90007026
:1027AA00E03EFCAF03AE02121036D0E02FFFD0E0BD
:1027BA003EFE90006EE0FDA3E0A3CDF0A3EDF09005
:1027CA000066E0FDA3E090006ECDF0A3EDF00235C7
:0127DA00E41A
:08210600900000EEF0A3EFF0E1
:10210E0090000612129AC1000000122216C004C0DE
:10211E0005C006C007122F25C004C005C006C007A3
:10212E0090000612129A40400000D007D006D0054B
:10213E00D004121BFCD003D002D001D000120C88A8
:10214E00C004C005C006C00790000612129AC13026
:10215E000000122216C004C005C006C007122F25AB
:10216E00C004C005C006C00790000612129A408037
:10217E000000D007D006D005D004121BFCD003D02F
:10218E0002D001D000120C88D003D002D001D000B2
:10219E00120B97C004C005C006C007122F25C0043D
:1021AE00C005C006C00790000612129A400000003B
:1021BE00D007D006D005D004121BFC7B177AB77956
:1021CE00D17839120C88A804A905AA06AB07D00746
:1021DE00D006D005D004120B93C004C005C006C0B3
:1021EE0007122F257B7F7A6A794C783F120C88D0A4
:1021FE0003D002D001D000120B977B027A2B79C24A
:08220E007841120B97020DCC80
:102216007F007E007D207C41121BFCE4FBFAF978EE
:0522260040120C8822AB
:05232C00900000EFF03D
:10233100E490002BF0A3F0A3F0900000E0FF9000E8
:102341002DE0C39F503C7F0F122AB97C047DA6CF9C
:10235100CDCFCECCCE121048EF25E025E090002E57
:10236100F0A3E4F0FF122AB990002EE01313543FBA
:10237100FD7C00121036122F15EEF0A3EF122F4A3A
:1023810080B7900001E0FEA3E0FF900029EEF0A3EA
:10239100EFF0E490002DF0900000E0FD90002DE0C2
:1023A100FCC39D5036EC122F19122F5B90002AE0CE
:1023B1009D900029E09C500F122F15E0FDA3E090A5
:1023C1000029CDF0A3EDF0122F15122F5B9FEC9E8B
:1023D1005004AE04AF05122F4B80BCE490002DF0E9
:1023E100900000E0F990002DE0FDC3995019ED1225
:1023F1002F19E0FCA3E0FD90002CE02DF090002BC4
:10240100E03C122F4A80D9900029122F5B90002CBA
:10241100E09DFD90002BE09CFCC3ED9FFFEC9EFE38
:0B242100E924FEFDE434FFFC0210483B
:100B9000020E38E86480F8E933E83360110460F04D
:100BA000ED33EC337009E8FCE9FDEAFEEBFF2204CB
:100BB00060DED3EB9FEA9EE99DE8C2E78CF0C2F7C6
:100BC00095F0400CE8CCF8E9CDF9EACEFAEBCFFB92
:100BD000120E0385D0F05804700320D5B3E80470DA
:100BE000075002B2D5020E4292D5EC0460F7E4CC75
:100BF000C0E0C398F8603B94186008400DD0E0FB5B
:100C0000020E1AE4FBFAC9FC8028E830E406E4C9C5
:100C1000FBE4CAFCE830E305E4C9CACBFCE85407AE
:100C20006010F8C3E913F9EA13FAEB13FBEC13FCB9
:100C3000D8F130F52FC3E49CFCEF9BFFEE9AFEED5C
:100C400099FDD0E0FBEF4E4D4C701222DB03020EFB
:100C50003FEC2CFCEF33FFEE33FEED33FDED30E7E0
:100C6000EB020E1AEF2BFFEE3AFEED39FDD0E0FB62
:100C700050130BBB0003020E42ED13FDEE13FEEF0B
:080C800013FFEC13FC020E1A35
:100C8800EC4D6011E8497017ED33EC3304600DE466
:100C9800FCFFFEFD22E933E8330470F8020E381237
:100CA8000E0358046009E4CC248150062850090238
:100CB8000E42284003020E3FC0E0EB4A7044B98060
:100CC80006D0E0FB020E2EEF4E701CBD8008EBFF35
:100CD800EAFEE9FD80EBE98DF0A4FEE5F0020D7176
:100CE800E9CDF9EAFEEBFFEF89F0A4FCE5F0CE8947
:100CF800F0A42EFFE435F0CD89F0A42DFEE435F004
:100D08008067EF4E7005BD80D780C3EF8BF0A4AC31
:100D1800F0EE8BF0A42CFCE435F0F8EF8AF0A42C6C
:100D2800E5F038FCE433CB8DF0A42CFCE5F03BF87F
:100D3800EE8AF0A42CFCE5F038F8E433CF89F0A46F
:100D48002CFCE5F038CF3400CE89F0A42FFFE5F075
:100D58003EFEE433C98DF0A42EFEE5F039CD8AF0CD
:100D6800A42FFFE5F03EFEE43DFD33D0E0FB500745
:100D78000BBB000F020E42EC2CFCEF33FFEE33FEF0
:060D8800ED33FD020E1A1E
:100D8E0075F020800E75F010800575F0087D007EE0
:100D9E00007F003392D530D50312123EEC33401053
:100DAE00EF33FFEE33FEED33FDEC33FCD5F0ED22E9
:0E0DBE00E5F0247EA2D513CC92E7CDCEFF2225
:100DCC00EDD2E7CD33EC3392D524814006E4FFFE1F
:100DDC00FDFC22FCE4CFCECDCC24E0501174FF807E
:100DEC00EDC3CC13CCCD13CDCE13CECF13CF04701B
:070DFC00F030D5DE02123ECB
:101BFC0090000212128EE4FFFE7D807C3F9000026A
:101C0C00E0F8A3E0F9A3E0FAA3E0FB120E6770067C
:101C1C00900002021D56900002E0FCA3E0FDA3E040
:101C2C00FEA3E0FF120E4DFBA3E0FCA3E0FDA3E03E
:101C3C00FEA3E0FF120E4DFFB40108E4FFFE7D8011
:101C4C007C3F22EF64046029EB64046024EBB40154
:101C5C0030E4FFFEFDFC900006E0F8A3E0F9A3E001
:101C6C00FAA3E0FB120E6760084006E4FFFEFDFCE1
:101C7C002290000612129AFFFFFFFF900006021D31
:101C8C0056E490000AF0A3F0FFFEFDFC900002E089
:101C9C00F8A3E0F9A3E0FAA3E0FB120E67505F9003
:101CAC000006E0FCA3E0FDA3E0FEA3E0FF120DCCD8
:101CBC0090000AEEF0A3EFF0FDCCEECCEC120D93FD
:101CCC00C8ECC8C9EDC9CAEECACBEFCB900006E090
:101CDC00FCA3E0FDA3E0FEA3E0FF120B93E4FBFAF0
:101CEC00F9F8120E67708A900002E0FCA3E0FDA3E5
:101CFC00E0FEA3E0FF120EE090000212128E9000A4
:101D0C0002E0FCA3E0FDA3E0FEA3E0FF121EE990BD
:101D1C000006E0F8A3E0F9A3E0FAA3E0FB120C88BC
:101D2C001228B190000612128E90000BE030E017D2
:101D3C00900006E0FCA3E0FDA3E0FEA3E0FF120E82
:101D4C00E090000612128E900006E0FCA3E0FDA3CA
:061D5C00E0FEA3E0FF22FF
:100E0300E9D2E7C933E833F892D5EDD2E7CD33EC35
:070E130033FC5002B2D522AE
:100E1A00EC30E7100FBF000C0EBE00080DBD000439
:100E2A000BEB6014A2D5EB13FCED92E7FD2274FFE5
:100E3A00FCFDFEFF22E480F8A2D574FF13FC7D803E
:030E4A00E480EF52
:100E4D00ED33EC33601004700FED547F70057402B8
:0A0E5D0092E0227404220422E42231
:100E670074F8CC6480CCC86480C8F58204604FC332
:100E7700EB9FF5F0EA9E42F0E99D42F0E89C45F0D1
:100E8700603C501DE5825FFFE582D313CB5BCBF45B
:100E97002B5582FB50280ABA002409B90020088084
:100EA7001DE5825BFBE582D313CF5FCFF4C3132F1E
:100EB7005582FF50090EBE00050DBD00010CC3EBA6
:100EC7009FF5F0EA9E42F0E99D42F0E89C45F0600C
:090ED70007CC4820E701B3EC222E
:100EE000ED33EC33600A047003BD8004ECB2E7FC20
:010EF00022DF
:1028790033DA929E35B16011377FE5FE39218489BB
:102889003AAEC3FF3C1D955B3D6358473E75FDF06D
:102899003F3172183F800000C2D5020E42020E3845
:1028A900BD80FA50F3020E3FED33EC330460F17B47
:1028B9003B7AAA79B8783F120C88ED33EC3392D57C
:1028C900247B5011A2D570DB500BED4480240450B9
:1028D90004A2D580CEEFFBEEFAEDF9ECF8120DCC9F
:1028E900EFF582F404FC120D98120B97C082902820
:1028F900797409120FA0ED33CC33D0F092D525F0BD
:0A290900A2D57001C313CC13FD2208
:101EB5003E9248DA3ECCCCCD3F2AAAAB400000008A
:101EC5003F8000003F9837F03FB504F33FD744FC0F
:101ED5003E3172173EB172173F0515913EDE5BD953
:101EE500D2008002C200EDD2E7F8CD33EC330470A6
:101EF5000BBD800592D5020E42020E3840FBD3146D
:101F050060F2F5F07C3FEE7A00C39496C8948B405E
:101F1500230AC89469C8941A401A0AC89468C894D0
:101F25001F40110AC8945AC89425400805F07A0044
:101F3500CDC2E7CDC0F090000C12128EEA2323C06B
:101F4500E024C5F582E4341EF58312127E120B9748
:101F5500ECC0E0EDC0E0EEC0E0EFC0E01212629030
:101F6500000C121272120B93D0E0FBD0E0FAD0E015
:101F7500F9D0E0B2E7F8120EF490000C12128E9030
:101F85001EB57403120F9190000C121272120C8878
:101F9500D0E0600F24D1F582E4341EF58312127E61
:101FA500120B9790000C12128ED0E0C3947FFDE4C3
:101FB5009400FC120D937B187A727931783F120CDC
:101FC5008890000C121272120B9730000B7BD97A95
:091FD5005B79DE783E120C8822D3
:100EF100020E42EC5D046005E859047003020E38ED
:100F0100120E03580460F6EC4860F2EC7004FDFE2A
:100F1100FF22C860DB2481C85009C39860025006D3
:100F2100020E3F9850CAF582E9294B4A7005AB82FF
:100F3100020E2E75F0007C1A7880C3EF9BEE9AEDBD
:100F410099400DC3EF9BFFEE9AFEED99FDE842F04B
:100F5100DC23ACF0D0E0FFD0E0FED0E0FDAB82209E
:100F6100E7101BEB60BAEC2CFCEF33FFEE33FEED28
:100F710033FD020E1AE803F830E705C0F075F00002
:100F8100EF2FFFEE33FEED33FD40B830E7C280AA0C
:100F9100C0E0EFFBEEFAEDF9ECF8120C88D0E0F5C9
:100FA100F0EFFBEEFAEDF9ECF8121262A3A3A3A3A2
:100FB100E8C0E0E9C0E0EAC0E0EBC0E0C0F0120C3C
:100FC1008812127EA3A3A3A3120B97D0F0D0E0FB4B
:0D0FD100D0E0FAD0E0F9D0E0F8D5F0D4225D
:030000000229A52D
:0C29A500787FE4F6D8FD7581200229EC53
:100FDE00BB010689828A83E0225002E722BBFE0211
:090FEE00E32289828A83E4932244
:100FF700BB010CE58229F582E5833AF583E02250AF
:1010070006E92582F8E622BBFE06E92582F8E222F8
:0D101700E58229F582E5833AF583E4932212
:10102400BB010689828A83F0225002F722BBFE01AB
:02103400F322A5
:10103600EF8DF0A4A8F0CF8CF0A428CE8DF0A42ECE
:02104600FE2288
:10104800BC000BBE0029EF8DF084FFADF022E4CC8C
:10105800F875F008EF2FFFEE33FEEC33FCEE9DEC55
:10106800984005FCEE9DFE0FD5F0E9E4CEFD22ED9B
:10107800F8F5F0EE8420D21CFEADF075F008EF2FE5
:10108800FFED33FD4007985006D5F0F222C398FDD6
:051098000FD5F0EA2273
:10109D00C2D5EC30E709B2D5E4C39DFDE49CFCEE6E
:1010AD0030E715B2D5E4C39FFFE49EFE121048C38E
:1010BD00E49DFDE49CFC800312104830D507C3E489
:0610CD009FFFE49EFE22DD
:1010D300C5F0F8A3E028F0C5F0F8E58215827002A8
:0610E3001583E038F02245
:1010E900BB0110E58229F582E5833AF583E0F5F045
:1010F900A3E0225009E92582F886F008E622BBFE22
:101109000AE92582F8E2F5F008E222E5832AF58367
:08111900E993F5F0A3E993222C
:10112100E88FF0A4CC8BF0A42CFCE98EF0A42CFC6D
:101131008AF0EDA42CFCEA8EF0A4CDA8F08BF0A4EB
:101141002DCC3825F0FDE98FF0A42CCD35F0FCEB4A
:101151008EF0A4FEA9F0EB8FF0A4CFC5F02ECD390F
:0F116100FEE43CFCEAA42DCE35F0FDE43CFC227C
:1011700075F008758200EF2FFFEE33FECD33CDCC36
:1011800033CCC58233C5829BED9AEC99E5829840B9
:101190000CF582EE9BFEED9AFDEC99FC0FD5F0D696
:1011A000E4CEFBE4CDFAE4CCF9A88222B800C1B9C0
:1011B0000059BA002DEC8BF084CFCECDFCE5F0CBFE
:1011C000F97818EF2FFFEE33FEED33FDEC33FCEB37
:1011D00033FB10D703994004EB99FB0FD8E5E4F9F2
:1011E000FA227818EF2FFFEE33FEED33FDEC33FCDF
:1011F000C933C910D7059BE99A4007EC9BFCE99AD3
:10120000F90FD8E0E4C9FAE4CCFB2275F010EF2F17
:10121000FFEE33FEED33FDCC33CCC833C810D70717
:101220009BEC9AE899400AED9BFDEC9AFCE899F852
:0E1230000FD5F0DAE4CDFBE4CCFAE4C8F922E5
:0E123E00C3E49FFFE49EFEE49DFDE49CFC22C1
:10124C00EB9FF5F0EA9E42F0E99D42F0EC6480C819
:06125C0064809845F022B9
:10126200E493FC740193FD740293FE740393FF22D2
:0C127200E0F8A3E0F9A3E0FAA3E0FB22FF
:10127E00E493F8740193F9740293FA740393FB22C6
:0C128E00ECF0A3EDF0A3EEF0A3EFF022D3
:10129A00A8828583F0D083D0821212B11212B112C1
:1012AA0012B11212B1E473E493A3C583C5F0C583E6
:1012BA00C8C582C8F0A3C583C5F0C583C8C582C89E
:0112CA002201
:0C35E400EE30E707C3E49FFFE49EFE22E8
:1029B100022FF1E493A3F8E493A34003F68001F21C
:1029C10008DFF48029E493A3F85407240CC8C33327
:1029D100C4540F4420C8834004F456800146F6DFF6
:1029E100E4800B0102040810204080902F62E47EF5
:1029F100019360BCA3FF543F30E509541FFEE493EB
:102A0100A360010ECF54C025E060A840B8E493A3B1
:102A1100FAE493A3F8E493A3C8C582C8CAC583CADC
:102A2100F0A3C8C582C8CAC583CADFE9DEE780BE94
:012FA9000027
:00000001FF
